:020000040800F2
:10000000000C002061020008CD3F00080135000807
:100010008D3F000821150008414C00080000000039
:100020000000000000000000000000005D49000822
:10003000511500080000000059490008D94B00087C
:100040007B0200087B0200087B0200087B0200089C
:100050007B0200087B0200087B0200087B0200088C
:100060007B0200087B0200087B0200087B0200087C
:100070007B0200087B020008451500087B0200088F
:100080007B0200087B0200087B0200087B0200085C
:100090007B0200087B0200087B0200087B0200084C
:1000A0007B0200087B0200087B0200087B0200083C
:1000B0007B0200087B0200087B0200087B0200082C
:1000C0007B02000811350008053500087B02000896
:1000D0007B0200087B0200087B0200087B0200080C
:1000E000551500087B0200087B02000800F002F8AA
:1000F00000F0A6F814A696E8000CB244B344DA4522
:1001000001D100F09DF8BAE80F000FA696E8300084
:10011000A5EB040504EB0607AAEB0704A7F101070A
:100120004FEA15154FEA3414A4F10104AC4201D38F
:1001300000F086F813F0010F18BFFB1A43F001031B
:1001400000F001F8DBE7184790610000B0610000A3
:10015000103A24BF78C878C1FAD8520724BF30C8F3
:1001600030C144BF04680C60704700007047000055
:100170000023002400250026103A28BF78C1FBD8B0
:10018000520728BF30C148BF0B6070476E2900F08E
:100190000582702900F04F83662905F0E182652908
:1001A00005F0DE82672905F0DB82612905F0DA823D
:1001B00003681B0A28BF41F08001692900F0B28161
:1001C000642900F0AF81752900F0AC816F2900F03F
:1001D000DD82782900F01B83E92900F07782E42989
:1001E00000F07482F52900F07182EF2900F0DA82C4
:1001F000F82900F01A830368DB0928BF41F0800169
:10020000632901F05180732901F05680E32901F040
:100210006180F32901F06680002070471FB501F06E
:10022000B7F804000020002105F044F9401C60608C
:100230000020002105F028F9E0601FBD10B510BDB9
:1002400001F078F81146FFF7E9FF04F0FBFC01F03C
:1002500055F903B4FFF7F2FF03BC01F059F90000B0
:100260000948804709480047FEE7FEE7FEE7FEE74A
:10027000FEE7FEE7FEE7FEE7FEE7FEE70448054986
:10028000054A064B70470000DD4B0008ED000008F2
:1002900000060020000C00200008002000080020BC
:1002A0001CB50C46064B7B4469460090204600F086
:1002B0008EF904460020694600F09CF920461CBDDA
:1002C0004B0300007CB51D4616460C00009007D07D
:1002D0004142A14202D32044401E01E04FF0FF30D2
:1002E000064B7B442A4669460190304600F06FF980
:1002F000002C02D0009A002111707CBD190300006F
:10030000032A40F2308010F0030C00F0158011F841
:10031000013BBCF1020F624498BF11F801CB00F819
:10032000013B38BF11F8013BA2F1040298BF00F86D
:1003300001CB38BF00F8013B11F0030300F04A8302
:10034000083AC0F0088051F8043B083A51F804CB51
:10035000A0E80810F5E7121D5CBF51F8043B40F817
:10036000043BAFF30080D20724BF11F8013B11F822
:1003700001CB48BF11F8012B24BF00F8013B00F866
:1003800001CB48BF00F8012B70474FF0000200B5C9
:10039000134694469646203922BFA0E80C50A0E8A8
:1003A0000C50B1F12001BFF4F7AF090728BFA0E856
:1003B0000C5048BF0CC05DF804EB890028BF40F822
:1003C000042B08BF704748BF20F8022B11F0804F64
:1003D00018BF00F8012B70474FF0013C50F8042B78
:1003E00051F8043B9A4221D1A2EB0C03934313EA48
:1003F000CC1317D150F8042B51F8043B9A4215D175
:10040000A2EB0C03934313EACC130BD150F8042B4B
:1004100051F8043B9A4209D1A2EB0C03934313EA2F
:10042000CC13DBD04FF00000704700BFD01A01BAE8
:10043000B1FA81F101F0180122FA01F0CB40DBB2F0
:10044000C0B2C01AC1F120012CFA01F3D11A9143B4
:1004500011EAC311E6D1704770477047704770B515
:10046000044685690068C10601D5302600E02026D3
:10047000C00707D070BDD4E9012130469047206AFB
:10048000401C20626D1EF6D570BD70B504468569AE
:100490000078C00707D170BDD4E901212020904722
:1004A000206A401C20626D1EF6D570BD09684A05A1
:1004B00001D540B27047C905FCD500B27047096844
:1004C0004A0501D5C0B27047C905FCD580B2704756
:1004D00070B50C460546012A05D02878800600D55F
:1004E000EA69002302E0012305E05B1C934202D28B
:1004F000E05C0028F9D1A869E618C01AA861286A4A
:10050000184428622846FFF7AAFF04E0D5E9012134
:1005100014F8010B9047B442F8D32846FFF7B5FF13
:1005200070BD00002DE9F0410646002410687529D1
:10053000314616A510D0FFF7B9FF002802DA404275
:1005400013A507E031688A0701D512A502E0490723
:1005500004D511A5012401E0FFF7B1FF00210A2213
:1005600006F1240709E0B0FBF2FCB0FBF2F302FB5A
:100570001C00303078541846491C0028F3D123461B
:100580002A463046BDE8F04100F09FBA0000000066
:100590002D0000002B000000200000001168026800
:1005A000006A530501D508700AE0D30501D508801B
:1005B00006E0130603D5C217C1E9000200E0086097
:1005C0000120704701694A1C02610878704700B534
:1005D0008FB0CDE901310021059105497944CDE97C
:1005E00003101146684600F031F90FB000BD00005D
:1005F000E5FFFFFF0A6802F8010B0A607047D1E9C6
:1006000000239A4202D2531C0B6010707047000006
:100610002DE9FF5F15468A460446DFF8AC80F844B2
:100620000027D8E900103E46CDE9001010E03AF866
:1006300016106A4602A800F059FE411C07D0217826
:10064000890603D5E269391891420DD80744761C12
:100650002078800602D5E069B84205DDAE42E6DBCF
:100660003AF816000028E2D1A069C01BA06120461C
:10067000FFF7F5FED8E90010CDE90010002017E0E3
:100680003AF818106A4602A800F030FEB0F1FF3FB9
:1006900081460BD000250DF1080B05E0D4E90121BE
:1006A0001BF8050090476D1C4D45F7D308F101007C
:1006B000B0428046E4DB206A384420622046FFF7DF
:1006C000E4FEBDE8FF9F0000465100002DE9F04127
:1006D0008046D21D22F007020025D2E90002F5294A
:1006E00015A614D0011E72F1000106DA0023D0EB2A
:1006F000030063EB020211A608E0D8F800108B0794
:1007000001D50FA602E0490701D50EA60125114625
:10071000002408F1240704E000F092F930323A5541
:10072000641C50EA0102F7D12B463246214640466E
:10073000BDE8F04100F0C9B9000000002D00000044
:100740002B0000002000000030B4002100F1240440
:1007500008E002F00705D208303542EA4372DB08B0
:100760006554491C52EA0305F3D10468002310A222
:10077000250708D504F020040C4304D0C4690123E4
:100780000CA2641EC46130BC00F09FB910B50446D1
:1007900021461068FFF793FE02462046BDE8104050
:1007A0000023D1E7D21D22F00701D1E90023CBE7D6
:1007B0000000000030000000F0B40D46018809057B
:1007C00002D5214C7C4402E01F4C7C440E340021B5
:1007D00000F1240608E002F00F071209E75D42EA83
:1007E00003721B097754491C52EA0307F3D10278BC
:1007F0000023120704D5702D06D009B1022311344D
:100800002246F0BC00F061B901231034F8E770B55E
:1008100004460D4621461068FFF751FE0246294660
:100820002046BDE870400023C6E7D21D22F0070332
:10083000D3E90023C0E70368126843F02003036094
:100840000823C3610023B7E7A84F00002DE9F05F3C
:10085000894604464FF0000ADFF874B1FB44C0F843
:1008600020A02046E1688847002874D0252806D0BB
:10087000D4E901219047206A401C2062F1E700265C
:100880005F462046E16888472028054607DB312D72
:1008900005D2781910F8200C08B10643F1E7B0072B
:1008A00001D526F00406C4F81CA00027C4F818A03F
:1008B0002A2D09D0284604F0DFFD38B304EB870861
:1008C000303DC8F8185019E059F8041B204604EBD5
:1008D00087029161E1688847012F054618D1E069D8
:1008E000002820DA26F020061DE0D8F8180000EBDA
:1008F000800005EB40003038C8F818002046E16859
:100900008847054604F0B8FD0028EED1012F0AD033
:100910002E2D08D12046E16888477F1C0546022F0E
:1009200046F02006C4DBA069002803DA404246F006
:100930000106A061F00701D026F010066C2D0BD047
:10094000682D09D04C2D39D06A2D35D0742D35D075
:100950007A2D33D016E038E0E1682F4620468847EC
:10096000B842054609D16C2F26D04FF48060E1686B
:10097000064320468847054604E06C2F1AD04FF402
:10098000807006430DB3A5F14100192802D8203527
:1009900046F400664A462946204626604E46FFF742
:1009A000F5FB80B101280BD0F61D26F0070000F101
:1009B000080956E74020E4E78020D8E70020D6E782
:1009C00006F104094DE7284652E7206ABDE8F09F8A
:1009D000384F000010B5203AC0F00B80B1E8185035
:1009E000A0E81850B1E81850A0E81850203ABFF419
:1009F000F5AF5FEA027C24BFB1E81850A0E81850B8
:100A000044BF18C918C0BDE810405FEA827C24BF0B
:100A100051F8043B40F8043B08BF7047D20728BF99
:100A200031F8023B48BF11F8012B28BF20F8023BE8
:100A300048BF00F8012B70470048704710000020A5
:100A400030B5B0F10A0271F100034FEA900E4EEAA0
:100A5000817EB0EB0E0061EB91014FEA101E4EEA71
:100A6000017E10EB0E0041EB11114FEA102E4EEA01
:100A7000016E10EB0E0041EB11214FEA104E4EEAD1
:100A8000014E10EB0E0041EB1141401841F1000105
:100A90004FEAD00040EA41704FEAD1014FEA8104A9
:100AA00044EA907410EB800544EB01046D1944EBAB
:100AB0000404521BA3414FF0000348BF0A3200D583
:100AC00030BD401C41F1000130BD2DE9F0470D461D
:100AD00099469246044600F124080168880604D528
:100AE000E06921F01001216000E00120A84201DD51
:100AF000471B00E00027A1697A1902EB0900081AD8
:100B0000A0612078C00602D42046FFF7A8FC00268A
:100B100008E0D4E901211AF806009047206A401C39
:100B2000761C20624E45F4DB2078C0060AD52046AC
:100B3000FFF795FC06E0D4E9012130209047206AB8
:100B4000401C2062381EA7F10107F4DC07E0D4E95D
:100B5000012118F805009047206A401C2062281ED9
:100B6000A5F10105F3DC2046FFF78FFC2078000695
:100B700002D50220BDE8F0870120FBE72DE9FF4FF9
:100B80000C461E464FF0FF378BB0D2E90001DDF86E
:100B900060800A908A46C1F30A5505B93D46002196
:100BA00008464FF00000BAF1000F00F4400005DAEB
:100BB00000EB80004FF4400101EA50004FEA9059E9
:100BC000B9F1010F00DDB9460A9850EA4A000ED08B
:100BD00044F61050A5F2FF3545432F14B8F1000F2D
:100BE0001ED07542291E1EDDC9F100021CE0B8F1BD
:100BF000010F4FF0000001D0302103E0F24305E087
:100C00002154401CB042FBDB30460022002121541D
:100C10000B99C1F80880C1E900200FB0BDE8F08F42
:100C2000BD1B6D1CDEE74A4600DA694206A800F0EB
:100C3000F3FB06AB93E8070003AB83E807005046DD
:100C40000A9904F03CF88DE80700A0F500501F3821
:100C500000900398002D0ADD42F21F014A46084425
:100C6000002303A90390684604F0A6FA09E0A0F562
:100C700000504A461F38002303A90390684604F039
:100C8000B0FA8DE807000004000C03D04FF0FF30ED
:100C9000410800E01046B8F1000F03D00022009296
:100CA00015461EE0751E05D4FFF7CAFE30326255A8
:100CB0006D1EF9D5B3460122084302D000227F1CE5
:100CC00004E02078302801D100227F1E002A0997F5
:100CD00084D01DE0112D07DAFFF7B2FE30326255E5
:100CE0006D1C50EA0102F5D1084302D00098C8B14A
:100CF0000EE00021681E05E0235C625C6354225410
:100D0000401E491C8142F7DBAB46A81B401E0990E0
:100D1000002004F80B000B98099AC0F80880C0E97D
:100D2000002B7AE711264FF0000857E72DE9F04F26
:100D300088460446D21D22F0070191B0D1E9000196
:100D4000CDE90A0104F084FB02460B98C00F01D0E4
:100D50002D2007E02068810701D52B2002E020210B
:100D600001EAC000032A099001D0072A05DB0346E7
:100D70004146204600F010FB0BE12078800601D5AB
:100D8000E06900E00620B8F1650F814606D0B8F1B1
:100D9000660F18D0B8F1670F70D131E00020B9F1BB
:100DA000110F009001DB112301E009F101030AAAF0
:100DB00001A90CA8FFF7E2FEDDE90C70002609F19D
:100DC0000105834647E001204B4600904FF0004765
:100DD0000AAA01A90CA8FFF7D1FEDDE90DB00C9914
:100DE0005D46002610B909F101000D18B9EB0500A8
:100DF00003D4C0F1FF3609F10105A5EB09002BE092
:100E0000B9F1010F01DA4FF001090020B9F1110F1A
:100E10000090484601DD112300E003460AAA01A91B
:100E20000CA8FFF7ABFEDDE90C704D4600268346AB
:100E3000207800070AD4AB4500DA5D4601A8012DF1
:100E400004DD411911F8011C302907D04F4502DAA1
:100E500017F1040F04DA012082460FE06D1EEEE761
:100E6000002F02DCED1B3E4403E0781CA84200DDAD
:100E70007D1CB81B00F1010A4FF0004720780007E5
:100E800003D4AA4501DB4FF0FF3A0021B7F1004F30
:100E90000DF143088DF8431024D002202B23002F9E
:100EA00001DA7F422D230A21021EA0F1010000DC9D
:100EB0005FB197FBF1FC97FBF1F201FB1C7C17463D
:100EC0000CF1300C08F801CDEEE7A8F10100037039
:100ED0002188090501D5452100E06521A0F101081F
:100EE00000F8011C09980FA9A1EB0807FF1D00B12C
:100EF0000120411901EBEA70A1693844081A401E2B
:100F0000A0612078C00602D42046FFF7A8FA09980D
:100F100028B1D4E901219047206A401C2062207842
:100F2000C00622D52046FFF79AFA1EE0002E04DB09
:100F3000B34502DD01A8805D00E03020D4E9012145
:100F40009047206A401C2062761CAAF101005FEAEB
:100F5000000A0AD100F01CFAC0680168405CD4E9BC
:100F600001219047206A401C2062281EA5F101053E
:100F7000DCDC07E0D4E9012118F8010B9047206A76
:100F8000401C2062381EA7F10107F3DC2046FFF762
:100F90007CFA032011B041E62DE9F04F04460D46DE
:100FA000D21D22F0070089B0D0E9009748463946A3
:100FB00004F04EFA0246F80F01D02D2307E0206816
:100FC000810701D52B2302E0202101EAC0038DF81F
:100FD00020300BB1012000E00020032A824601D01E
:100FE000072A04DB2946204600F0D6F93FE12078A5
:100FF000800601D40D2500E0E569C7F30A560D2DE2
:1010000049DA00214FEA175B08464FF00000002F35
:1010100000F4400007DA00EB80004FF4400100EBE1
:10102000D07001EA60008115012901DD4FF0FF3128
:1010300000224FEA850CBCF1180F06D31346ACF121
:1010400018004FF08052C24003E04FF4801323FA9F
:101050000CF30CF10C0CBCF1200F04D3ACF1200C00
:1010600009FA0CF001E007FA0CF000294FF00048F3
:1010700001DD18B90FE00ED140450CD319EB020980
:101080005F4121B9404502D19F4329EA0209BBEBE8
:10109000175F00D0761C2088000502D57B48784475
:1010A00002E07A487844193808AA302302F80A3056
:1010B000037C0AF10101002E0AF1020A53546A4628
:1010C00002DC4FF0300101E04FF031014FF0010838
:1010D0008DF8001002D0A6F2FF3603E059EA47016E
:1010E00000D06B4E002D02DC2178090704D54FF0AB
:1010F00002082E218DF80110C44600210BE0C7F331
:1011000003433F01C35C491C6D1E02F808300529EA
:1011100008F1010801DA002DF1DC00210CE000EB00
:101120001973491C1B786D1E082902F808304FEA14
:10113000091908F1010801DA002DF0DC21688B069D
:1011400002D516E0A8F10108E04505DD02EB080331
:1011500013F8013C302BF5D0B8F1000F09DD02EB9C
:10116000080313F8013C2E2B03D1090701D4A8F181
:101170000108002D05DD3E2102F808106D1E08F162
:101180000108407C002E02F8080008F1010804DA8A
:101190002D20764202F8080002E02B2002F8080019
:1011A0000A214FF47A70864208F101080BDB96FBA6
:1011B000F0F3303302F8083096FBF0F308F1010841
:1011C00000FB136601E0642E0CDB642096FBF0F359
:1011D000303302F8083096FBF0F308F1010800FB09
:1011E000136601E00A2E06DB96FBF1F0303002F8C0
:1011F000080008F1010896FBF1F001FB10603030A7
:1012000002F80800A16908F1010808EB050202EBE9
:101210000A00081AA0612078C00602D42046FFF711
:101220001EF9216A08AE01EB0A00206204E0D4E94D
:10123000012116F8010B9047BAF1010AF7D2207884
:10124000C00602D52046FFF70AF96E4609E016F8F7
:10125000010B3E280FD0D4E901219047206A401CA1
:101260002062B8F10108F2D22046FFF70EF909B06A
:101270000320BDE8F08F206A2844206203E0D4E90F
:101280000121302090476D1EEBD3F8E71A4700008C
:1012900002FCFFFF10B5436913B1AFF3008001E01A
:1012A000FFF716F9012010BD127800F124010A7031
:1012B00000224A700122EDE711684FF0FF32E9E7A2
:1012C00010B5436913B1AFF3008001E0FFF7A0F957
:1012D000012010BD128800F1240182840022C28402
:1012E0000122EDE711684FF0FF32E9E72DE9F04107
:1012F00016460C46054600F043F8036893F80101D2
:10130000012807D0FF2C12D8185D80B101202C7065
:10131000BDE8F081D3F807013246214603F20713F6
:10132000C7182846BC46BDE8F041002360474FF08F
:10133000FF30EDE77546FFF77FFBAE4605006946D7
:10134000534620F00700854618B020B5FEF796FFFB
:10135000BDE820404FF000064FF000074FF00008B6
:101360004FF0000BAC46ACE8C009ACE8C009ACE8F3
:10137000C009ACE8C00921F007018D4670470000A4
:1013800010B500F005F8001D10BD00BF2941000098
:1013900000487047300000202DE9F0411F46044608
:1013A00003260168072A01F4006004DB08B116A5D2
:1013B00005E016A503E008B115A500E015A521F08C
:1013C00010002060A069C01EA0610FB1401EA06186
:1013D0002046FFF744F84FB1D4E901213846904741
:1013E000206A401C2062C01C206206E0206AFAE7E6
:1013F000D4E9012115F8010B9047761EF8D220465A
:10140000FFF743F8BDE8F0814E414E006E616E007B
:10141000494E4600696E66002DE9F0478146164642
:101420008AB0354878440DC88DE80D0032487844BC
:10143000801C03AC0DC884E80D0041F69B300844C5
:10144000372190FBF1F290FBF1F5A5F1800501FB4E
:1014500012041B3C02D56442012000E00020DFF8AA
:1014600098A080460027FA44AAF1BE0A0EE0E007E1
:101470000AD03246684607EB470101230AEB810197
:1014800003F0AFFE8DE8070064107F1C002CEED146
:10149000194F7F44AE3F19E0E80715D007EB041061
:1014A0000DF1180A90E80E008AE80E00C068F042BC
:1014B00001D1981908903246012306A903A803F028
:1014C00090FE03AB83E807006D10641C002DE3D190
:1014D0004FF0010332466946B8F1000F03A802D06D
:1014E00003F06AFE01E003F07CFEC9E90001C9F8DF
:1014F00008200AB0BDE8F0872444000010B5044677
:10150000AFF300802046BDE81040FEF7A2BE000009
:1015100001491820ABBEFEE726000200704700001C
:10152000FEE7000040F2F850C2F20000007840F2FE
:101530000401C2F20001085C40F2F951C2F200015C
:101540000870704740F2F440C2F2000000F07AB830
:101550007047000080B54FF4006000F0AFF94FF421
:101560008050BDE8804000F0A9B90000EFF3108082
:1015700072B600BFFEE7000040F2F950C2F2000070
:10158000052101707047000090F82110022923D135
:10159000026840F2040C1168C4F2020C21F00E0142
:1015A000116013682F21C4F202018A4223F0010363
:1015B000136015DD3023C4F202039A421CD0442389
:1015C000C4F202039A421AD05823C4F202039A4288
:1015D0001AD14FF480331FE004218163012070474A
:1015E0000823C4F202039A420CD01C23C4F2020363
:1015F0009A4209D110230FE04FF480730CE04FF4AE
:10160000805309E0012307E00CF168014FF080737B
:101610008A4208BF4FF480130121CCF8003080F8D3
:101620002110416B0022002980F8202004BF0020F7
:10163000704780B58847002080BD000090F82100E9
:101640007047000010B5D0E90FCE0168DCF800301B
:101650000A6823FA0EF35C0724D512F0040421D0A3
:101660000A68920603D40A6822F004020A602F2254
:10167000C4F20202914240F20402C4F202024FDDBF
:101680003023C4F20203994262D04423C4F202031D
:10169000994260D05823C4F20203994260D14FF4BA
:1016A000802365E09C0727D512F0020424D00A6845
:1016B000920606D40A6822F00A020A60012280F823
:1016C00021202F22C4F20202914240F20402C4F20D
:1016D000020231DD3023C4F2020399424ED044238A
:1016E000C4F2020399424CD05823C4F20203994237
:1016F0004CD14FF4003351E01B0756D512F00802CD
:1017000008BF10BD0A6822F00E020A60012101FA2A
:101710000EF2CCF80420816380F82110016B3FE0C9
:101720000823C4F20203994218D01C23C4F2020316
:10173000994215D140231BE00823C4F202039942C9
:1017400022D01C23C4F2020399421FD1202325E09A
:101750004FF480630CE04FF4804309E0042307E07A
:1017600002F168044FF08063A14208BF4FF4800388
:101770001360C16AC9B1BDE8104008474FF4007357
:101780000CE04FF4005309E0022307E002F1680483
:101790004FF00073A14208BF4FF400131360816A39
:1017A0000022002980F82020E5D110BD0146002844
:1017B0004FF0010008BF70472DE9F043D1F800C099
:1017C0004FF6F873CBF6FD734CF6CD426344CCF67E
:1017D000CC42A3FB02236FF0030202EA9302002330
:1017E000C4F2020301F10C08C1E90F320222D1E96F
:1017F000019E98E8F00181F82120DCF8002043F6F2
:10180000F0739A4342EA090242EA0E0222432A4353
:1018100032433A4342EA0802CCF8002000228A63AD
:1018200081F8210081F820200020BDE8F0437047B6
:10183000B0B5044600F050F9054640F20600C2F289
:1018400000000078611C18BF044400BF00F044F998
:10185000401BA042FAD3B0BD10B5B0F5006F14D054
:10186000B0F5805F28D140F2D854C2F2000420685D
:10187000002818BF80476068002818BF8047A0680C
:10188000002818BF8047E06810E040F2D854C2F248
:1018900000042069002818BF80476069002818BF2D
:1018A0008047A069002818BF8047E069002808BF6A
:1018B00010BDBDE81040004710BD000040F21441CB
:1018C000C4F201010A68024214BF08607047FFF7C2
:1018D000C3BF00002DE9F04F82B00E68002E00F06B
:1018E000F78041F20042C4F20102042340F2004EAC
:1018F000904208BF03234FF6FF7CC4F2010E009311
:1019000000240123C1F2100C4FF0000A4FF000092F
:101910004AE041F20002C4F20102009F904208BF77
:10192000022704F00C030F229A402BEA020207FA66
:1019300003F34FEA9A051A4346F825204E6840F211
:101940000C45F202DEF8082054BF22EA080242EAFF
:101950000802C4F20105CEF808202A68B30254BF79
:1019600022EA080242EA08022A60B303DEF80420F1
:1019700054BF22EA080242EA0802F303CEF8042028
:10198000DEF800204FF0010354BF22EA080242EAC9
:101990000802CEF800200E680AF1010A36FA0AF2AF
:1019A00004F1040400F0948003FA0AFB16EA0B0821
:1019B000F1D04E68664511DC122E51D8DFE806F0F2
:1019C000340A49465050505050505050505050508A
:1019D00050424D00D1F80C9042E000BF4FF6FF722C
:1019E000C1F2210296420FDC0022C1F2110296429E
:1019F0001AD00022C1F21202964215D00022C1F282
:101A00002102964210D02BE00022C1F2220296421F
:101A10000AD00022C1F23102964205D00022C1F262
:101A2000320296421CD100BF8A6842B1012A14BF1B
:101A3000C0F814B0C0F810B04FF0080910E04FF033
:101A400004090DE0CA6802F1040909E04FF0000939
:101A500006E0CA6802F1080902E0CA6802F10C094E
:101A600002462646B8F5807F24BF0432203E176820
:101A70000F25B54027EA050509FA06F63543156036
:101A8000CA79D2067FF587AF41F21803C4F2020388
:101A90001A68AEF57E7642F001021A601A6802F00A
:101AA00001020192019A2AF0030256F802B040F6B0
:101AB0000002C4F20102904208D040F60042C4F293
:101AC000010290427FF425AF01272AE7002728E78B
:101AD00002B0BDE8F08F000040F2FC50C2F20000FE
:101AE000006870477047000070470000F0B581B093
:101AF0000446006800254769426894F83E1002F4E5
:101B00008076FA0508D53EB16FF4807242610268B2
:101B1000012542F400420260BA0505D5002E1EBF21
:101B200002356FF4007242617A0516D5AEB1628D4E
:101B300094F83D30D4F830C0202908BF002A22D0C4
:101B40006FF48062402905F10405426101D010293B
:101B500003D1016841F400710160380506D52EB14A
:101B6000206808356FF40061416100E04DB1206CE0
:101B700040EA05012046216401B0BDE8F04001F0D3
:101B800057BD01B0F0BD03F0F701212909D0282B82
:101B900008BFBCF1210F04D06FF4806141610435AE
:101BA000DBE794F83D10E26AB2F1080318BF0123A5
:101BB000203A18BF0122134208BF282920D021292A
:101BC00038D10021CFF6FF71E1622121216320216C
:101BD00084F83D10002184F83E10426822F4E0624F
:101BE00042606FF480624261026822F480620260A7
:101BF0004269120648BF0161204600F0C1FDACE712
:101C00000021CFF6FF71E162416821F4E06141609B
:101C10006FF480614161016821F4806101600020FE
:101C20002021206384F83D1084F83E00204600F017
:101C3000B7FB92E76FF4806141618EE7F0B581B048
:101C400007687968C26A90F83E5090F83DE0402DF0
:101C500001D0102D33D1BB697C69E60717D1B2F1F1
:101C60002A4F00F04C82B2F52A0F00F0488222077A
:101C700001F4007240F10081002A00F0FD80416B08
:101C8000426C0029D2B23A6140F0AC80ACE08A05E7
:101C900042D44FF0010C7A685B076DD4120500F155
:101CA0002E8204F04402402A40F04B8111F48061FE
:101CB00000F0478101B0BDE8F04001F0E7BD026CE3
:101CC00001F40073002A0CBFBC6900247D69AA07D7
:101CD00028D53BB3016C002918BFBC6990F83D10B2
:101CE00001F02801282940F0BC807968012221F404
:101CF0008061796004F0040182EA910122064FF0CC
:101D0000180258BF0C22825A002380F83C3001B0E0
:101D1000BDE8F040FFF7E8BEC16AB1F52A0F3CD13B
:101D200001213FE0EA066DD5002B6BD090F83D50C5
:101D3000796821F4E061796000210091796900916E
:101D4000396841F0010139600099396821F48061F6
:101D500039607968090540F16C8105F0F7010446A6
:101D6000222940F03C8154F8381F0A68526824F850
:101D70000E2C34F80E2C3AE1120500F1C08104F06B
:101D80008402802A40F0EC8011F4806100F0E88049
:101D900001B0BDE8F04001F057BEC16AB1F12A4F71
:101DA00001D10821C16290F83E1040290AD1016D8D
:101DB000406C002900F0FE0018BF40F001003861BF
:101DC00001B0F0BD0169B1F5804F40F0858090F819
:101DD0003D10426C212902F0FE0218BF01323A6127
:101DE000416B09B1896A39B9806B002800F087819D
:101DF000806A002800F08381786840F40060786091
:101E000001B0F0BD0EF0F702212A73D105F0840273
:101E1000802A40F0B88011F4806100F0B48090F81E
:101E20003D10428D002A00F06A81426A12F8013B9F
:101E30003B614262428D013A4285428D002A08BFD1
:101E4000292940F05C81796821F480617960212141
:101E50000163282180F83D1001B0BDE8F04000F09A
:101E60008FBC002100917A690092BA690092009AB1
:101E700080F83C1001B0F0BD4FF0010CA6078CEAD1
:101E8000522C7FF508AF002A3FF405AF90F83E20B2
:101E9000C16A036B90F83D60222E40F09780066D7A
:101EA000002E08BF402A00F09180026D002A40F009
:101EB00028810269B2F5404F40F023810021009152
:101EC00079690091B96900910099396841F480718C
:101ED0003960016D0131AEE1016D002900F0F18042
:101EE000016D012940F00B81406C062101EAD01000
:101EF000F13064E705F04402402A53D111F48061C7
:101F000050D090F83D10428D002A00F0F8803A69D8
:101F1000436A1A70426A01324262428D013A428536
:101F2000428D002A08BF2A2940F0E98001684A68EA
:101F300022F480624A6022210163282180F83D104A
:101F4000D1E004F00401012282EA910141EA0C018E
:101F5000C90740F0D48001B0BDE8F04001F01EBCDC
:101F600004F00401012282EA910141EA0C01C9074F
:101F700040F0C580BEF1210F40F0BA8001B0BDE84D
:101F8000F04001F021BD690740F1B980002B00F05D
:101F9000B680418D002900F0B280416A11F8012B12
:101FA0003A610EE0690740F1AA80002B00F0A7809B
:101FB000418D002900F0A3803969426A1170416A9D
:101FC00001314162418D0139418598E00020009046
:101FD00078690090B8690090009801B0F0BD54F89D
:101FE000341F0A68526824F80A2C34F80A2C1AB1F3
:101FF000026C42F0040202647A68064622F400622F
:1020000008467A60FFF71AFB01463046012910D0D6
:10201000206843F21D51C0F600014163FFF7B4FA96
:102020000146304629B1216804464A6B084690476C
:102030002046418DF9B101684A69520709D50969FD
:10204000426A1170426A016801324262428D013A6D
:1020500042854A69520608D50969426A1170416A87
:1020600001314162418D01394185418D19B1016CC8
:1020700041F004010164016C21B101B0BDE8F04000
:1020800001F0D6BA2A2D08D100210163282180F859
:102090003D10044600F072FB204690F83D102829C0
:1020A00015D10021CFF6FF71C1620021202201630A
:1020B00080F83D2080F83E1001B0BDE8F04000F00F
:1020C0006FB9406C062101EAD010F03077E6016B61
:1020D000222918BF222D12D100212022016380F86D
:1020E0003D2080F83E1001B0BDE8F04000F046BB56
:1020F000402D04D101B0BDE8F04001F0FDBC01B0BD
:10210000F0BD428D52B1428D012A13D1202918BF52
:10211000082942D1396821F4806139600021009199
:1021200079690091B96900910099396841F40071A9
:1021300039607FE0428D022A14D1102955D801223E
:1021400014238A40C0F201031A424ED03A6842F486
:1021500080623A60002200927A690092BA69009225
:10216000009A51E03A6842F480623A607A68120557
:1021700033D54A1E1F2A08D8012303FA02F248F277
:102180008103C8F200031A4202D111F5803F24D125
:10219000796841F4805179601FE011F5803F0AD1E0
:1021A000396821F48061396079680905B6D53968E4
:1021B00021F4806110E0122B01D10129AAD110294C
:1021C000F5D8012202FA01F11422C0F201021142F3
:1021D000EDD0396841F4806139600021009179695E
:1021E0000091B9690091009924E03A6842F40062D4
:1021F0003A60002200927A690092BA690092009ACD
:102200003A6822F480623A607A68120512D54A1E52
:102210001F2A08D8012303FA02F248F28103C8F208
:1022200000031A4202D111F5803F03D1796841F4CD
:10223000805179600021016501B0F0BD7047000058
:10224000002804BF01207047F0B581B0044690F823
:102250003D0028B9002084F83C00204600F030FA08
:10226000242084F83D002068016821F0010101600C
:10227000016841F400410160016821F400410160FE
:1022800000F01CFC636848F2A16CC0F2010C40F63F
:102290000011C0F23D0163453CBF48F28041C0F2ED
:1022A0001E01884202D2012001B0F0BD4DF68361CB
:1022B000C4F21B31A0FB01122168970CD1F804E095
:1022C0004FF496762EF03F0545EA92454D607743F0
:1022D00048F638160D6AC0F24106A7FB067625F0CF
:1022E0003F07634538BF960C721C3A430A62CA69BD
:1022F00048F2A0664CF6FF77C0F20106B34222EA2C
:1023000007020AD801385B00B0FBF3F001306FF32D
:102310001F30042898BF042019E0A768013857B17E
:1023200019277B43B0FBF3F001306FF31F3068B126
:1023300000F5804007E003EB4303B0FBF3F001300E
:102340006FF31F3010B100F5004000E00120104392
:10235000C8610868D4E9072320F0C000104318437F
:102360000860886848F2FF3204F10C0790438CCF74
:1023700018431043A6698860C86820F0FF003843FE
:102380003043C860086840F0010008600020202148
:10239000206484F83D10206384F83E0001B0F0BD55
:1023A0007047000070470000704700002DE9F041C1
:1023B00082B01F46164688460446FFF78DFB94F808
:1023C0003D10202921D12168054600BF886980077A
:1023D00017D5FFF781FB401B21681A28F6D38869BF
:1023E0008007F3D500202021206384F83D1084F875
:1023F0003E00216C022641F02001216484F83C005B
:1024000004E094F83C00012804D10226304602B0D2
:10241000BDE8F081012084F83C000868C00703D1C2
:10242000086840F001000860086820F40060086057
:10243000212084F83D00102084F83E000020206414
:1024400066626785608D20850020CFF6FF70E062B0
:10245000E06A10F5803F18BF012845D1086840F4B4
:10246000807008604869089FC00713D17E1C06E091
:102470004869C00700F0E4804869C0070AD1002E0F
:10248000FAD0FFF729FB2168002FF1D0401BB8429A
:10249000F2D9EDE72069B0F5804F01D1FE202AE0A6
:1024A000062000EAD810F0300861084650F8142FD2
:1024B00012071FD47E1C08E04869000740F1D58050
:1024C000084650F8142F120714D44A69520500F137
:1024D000A980002EF4D0FFF7FFFA2168002FEBD07F
:1024E000401BB842ECD9E7E70828B7D0206B122888
:1024F000B4D0B7E7FF2000EA08000861084650F8AA
:10250000142F92071AD47E1C09E000BF4869800787
:1025100040F1AB80084650F8142F92070ED44A6958
:10252000520500F17F80002EF4D0FFF7D5FA216824
:10253000002FEBD0401BB842ECD9E7E7002601960C
:1025400048690190886901900198208D00285DD02C
:1025500007F1010804E000BF4869000640F19480DB
:10256000084650F8142F12060ED44A69520562D458
:10257000B8F1000FF4D0FFF7AFFA2168002FEBD0CD
:10258000401BB842ECD9E7E7D4F824E0704610F8D5
:10259000012B0A616062608D01386085B4F828C043
:1025A0000846ACF10102228550F8143F5B070DD5B7
:1025B00013040BD09EF801200A610EF10202626240
:1025C000628D013A6285ACF10202228503685B07E5
:1025D0000AD51004C4D119E04869400754D508460B
:1025E00050F8142F52070ED44A69520523D4B8F17B
:1025F000000FF4D0FFF770FA2168002FECD0401BD9
:10260000B842ECD9E8E7228D1004A9D1086840F45B
:1026100000700860202084F83D0084F83E6084F853
:102620003C60F3E60A6842F400720A606FF480616D
:10263000016004201AE06FF480620260042024E04C
:1026400000202022206384F83D2084F83E00226C84
:10265000012642F02002226484F83C000868C0058C
:1026600044BF4FF400702064D0E6202000212022D7
:10267000216384F83D2084F83E10226C012610432B
:10268000206484F83C10C1E620200022202322632D
:1026900084F83D3084F83E20236C1843206484F88D
:1026A0003C20206C042805D10868012640F4007005
:1026B0000860ABE60126A9E67047000070470000FD
:1026C00070B586B0044645F600002168C4F20000EB
:1026D00000268142CDE904660396029601D006B039
:1026E00070BD41F21805C4F20205296800F53440B6
:1026F00041F008012960296801F008010191019960
:102700004FF440610291122103910321059102A926
:10271000FFF7E0F86868102140F48000686068689E
:1027200040F2F44500F48000019001984420C2F288
:102730000005C4F20200802285E843002846C5E96E
:102740000326C5E90566EE61FFF730F8002818BFDB
:10275000FEF70CFF21200021002265636C6200F06F
:102760008FF8212000F07AF822200021002200F0CA
:1027700087F8222000F072F806B070BD70470000A4
:102780007047000040F2060040F2FC51C2F2000027
:10279000C2F2000100780A68104408607047000027
:1027A00080B542F20000C4F20200016841F010015D
:1027B0000160032000F090F80F2000F005F800F011
:1027C0002BF8002080BD0000B0B540F20602C2F236
:1027D000000240F200011278C2F200014FF47A7355
:1027E0000968B3FBF2F20446B1FBF2F1084600F0CF
:1027F0006BFB0F2C4FF001050CD858B94FF0FF3090
:1028000021460022002500F03BF840F20800C2F209
:10281000000004602846B0BD82B041F21800C4F246
:1028200002000168022241F001010160016801F02B
:10283000010101910199416841F080514160406876
:1028400000F08050009000980420C4F2010001685C
:1028500062F31A61016002B070470000002848BFAF
:10286000704700F01F01012202FA01F11C2202EA66
:10287000D0004EF20012CEF20002815070470000EC
:1028800010B54EF60C5CCEF2000CDCF80030C3F351
:10289000022E8EF00704042C28BF0424BEF103038B
:1028A0004FF0FF3E0EFA04F438BF0023A1439940D5
:1028B0000EFA03F39A43114300F00F0200F1604354
:1028C0000901043A03F564436244002848BF02F159
:1028D0000C03197010BD00004EF60C51CEF2000131
:1028E0000A684FF6FF031A4060F30A2242F0806044
:1028F00040F0FD700860704770470000002804BF7A
:10290000012070472DE9F04381B042F20008C4F283
:1029100002080446D8F800000D4600F00700814286
:102920000CD9D8F8000020F007002843C8F80000B0
:10293000D8F8000000F00700A8426BD1206841F2EF
:1029400004098107C4F2020917D5410705D5D9F852
:10295000001041F4E061C9F80010010705D5D9F86D
:10296000001041F46051C9F80010D9F80010A268B5
:1029700021F0F0011143C9F80010C00741D1D8F887
:10298000000000F0070085420CD2D8F8000020F0CB
:1029900007002843C8F80000D8F8000000F007003E
:1029A000A84237D12068410707D5D9F80010E2685E
:1029B00021F4E0611143C9F80010000708D5D9F8E7
:1029C0000000216920F4605040EAC100C9F800000D
:1029D000D9F8002002F00C00082841F20020C0F2D3
:1029E0007A0049D146F2B523C2F38341C0F6000311
:1029F000595CD20334D440F60010C0F23D00484385
:102A00003AE0606859F8041C022807D0012824D154
:102A1000890305D4012001B0BDE8F0838901F9D50F
:102A2000D9F8001021F003010843C9F80000FFF7AE
:102A300053F8064641F28837D9F80000616800F083
:102A40000C00B0EB810F9AD0FFF746F8801BB8421C
:102A5000F2D9032001B0BDE8F0838907DAD5DFE7BA
:102A6000D9F8002045F67C03C2F34042C0F60003CB
:102A70009A5C4843B0FBF2F0D9F8001045F66402C6
:102A8000C1F30311C0F60002515C40F2000220FACB
:102A900001F140F20800C2F200000068C2F2000238
:102AA0001160FFF791FE002001B0BDE8F083000047
:102AB0004C20C4F2422001210160704740F2000026
:102AC00041F20401C2F20000C4F202010068096888
:102AD00045F67402C1F30221C0F60002515CC84001
:102AE0007047000010B541F20804C4F202042068E7
:102AF000000658BF10BDFFF7FFFE8020A07010BD7C
:102B0000002804BF012070472DE9F04182B004463F
:102B1000007841F20006C007C4F202060BD07068CC
:102B200000F00C00042876D13068800303D560687B
:102B3000002800F030812078800719D5706810F0E7
:102B40000C0F07D0706800F00C0008287CD170686A
:102B5000C00379D43068800703D52069012840F08C
:102B60001A813068616920F0F80040EAC1003060E5
:102B70002078000713D42078400727D4E569002D7A
:102B800000F00581706800F00C00082840F0968085
:102B9000012D40F0F180012002B0BDE8F081A06974
:102BA000002877D00020C4F242200121C0F8801410
:102BB000FEF792FF054600BF706A800700F1A18012
:102BC000FEF78AFF401B0228F6D956E1F0695FEA5A
:102BD000C00808D4F06940F08050F061F06900F05E
:102BE00080500090009847F20007C4F20007386850
:102BF000C00541D4386840F480703860FEF76CFF3F
:102C0000054600BF3868C00536D4FEF765FF401B97
:102C10006428F7D931E1706800F00C00082803D16E
:102C20007068C0033FF580AF61683068002900F02C
:102C3000FA80B1F5A02F00F0EF80B1F5803F40F0B1
:102C4000098140F480300BE12069002840F2000047
:102C5000C4F2422000F07E8001210160FEF73CFFBB
:102C6000054600BF306880073FF57BAFFEF734FFB5
:102C7000401B0228F6D900E1E168306A002900F023
:102C80009580052900F08B80012940F0A68040F056
:102C90000100A8E00020C4F242200021C0F8801406
:102CA000FEF71AFF054600BF706A80077FF563AF25
:102CB000FEF712FF401B0228F6D9DEE00027C4F21F
:102CC000422700203866FEF707FF022D05460DD18A
:102CD0003068800140F1D580FEF7FEFE401B0228DF
:102CE0004FF00300F4D902B0BDE8F08130688001F4
:102CF0004DD5FEF7F1FE401B02284FF00300F5D939
:102D0000F1E740F20000C2F20000006844F6D3513F
:102D1000C1F26201A0FB0101480A019000BF0198C5
:102D2000411E002801913FF426AF00BF0198411ECB
:102D3000002801913FF41FAF00BF0198411E0028F9
:102D400001913FF418AF00BF0198411E0028019186
:102D5000E4D110E700210160FEF7BEFE054600BF8A
:102D6000306880077FF504AFFEF7B6FE401B0228EF
:102D70004FF00300F4D9B6E77068216A00F480329E
:102D80008A4208D1616A00F47010884203D10020A1
:102D900002B0BDE8F081012002B0BDE8F08140F052
:102DA00004003062306A40F001001CE020F00100B5
:102DB0003062306A20F004003062FEF78DFE054676
:102DC00041F28837306A80071DD5FEF785FE401B2B
:102DD000B8424FF00300F5D985E720F001003062DA
:102DE000306A20F004003062FEF776FE054641F2BC
:102DF000883700BF306A800705D4FEF76DFE401BA0
:102E0000B842F7D939E0B8F1000F3FF5B7AEF06935
:102E100020F08050F061B1E640F4802030603068EE
:102E200040F480301CE020F480303060306820F4C2
:102E300080203060FEF750FE054600BF30688003FA
:102E40007FF579AEFEF748FE401B64284FF0030083
:102E5000F4D948E720F480303060306820F48020D6
:102E60003060FEF739FE0546306880033FF563AEFB
:102E7000FEF732FE401B6428F6D9032002B0BDE8FD
:102E8000F081206AB0F5803F05D17168A26821F415
:102E90000031114371607168626A21F47411114349
:102EA0000843706001203866FEF716FE044600BF36
:102EB000306880013FF56BAFFEF70EFE001B022865
:102EC0004FF00300F4D90EE7411E0020B0EB116F64
:102ED0001CBF012070474EF21002CEF2000251607A
:102EE0004EF62351CEF20001F0230B7007219060C3
:102EF0001160704790F83C20012A4FF0020231D057
:102F000010B580F83D200268D2F804E0D2F808C07D
:102F10000C682EF07003234340F2FF74C4F20004E7
:102F2000A242536005DCB2F1804F0ED040F2004364
:102F300007E042F60043C4F201039A4205D040F68E
:102F40000003C4F200039A4204D149682CF08003C4
:102F5000194391600121002280F83D1080F83C2047
:102F6000BDE8104010467047002804BF012070479C
:102F700010B590F83D1031B9002180F83C1004469E
:102F800000F066F82046022180F83D10016840F20A
:102F9000FF740B68C4F2000442F6004CA142C4F274
:102FA000010C05DCB1F1804F0AD040F2004203E091
:102FB000614505D040F60002C4F20002914203D1FF
:102FC000826823F070031343A14205DCB1F1804F06
:102FD0000AD040F2004203E0614505D040F600020D
:102FE000C4F20002914203D1026923F440731343F7
:102FF000846923F08002D0F804E0C368224361456D
:103000000A60CB62C1F828E002D14269CCF83020D6
:1030100001224A610B69DB0703D00B6923F001032E
:103020000B6180F8462080F83E2080F83F2080F831
:10303000402080F8412080F8422080F8432080F82A
:10304000442080F8452080F83D20002010BD00007D
:10305000006840F20041C4F20001884218BF704786
:1030600081B041F21C00C4F20200016841F002018B
:103070000160006800F002000090009801B0704705
:1030800090F83C20012A4FF002026BD080B580F806
:103090003D20D0F800C04FF67772DCF8083023EA04
:1030A0000202CCF808200B684F2B28DC1F2B44DDD4
:1030B000202B45D0302B43D0402B40F0AC80D1F8B2
:1030C00004E0C968DCF82030DCF8202022F001029E
:1030D000CCF82020DCF8182022F0F00242EA01119E
:1030E00023F00A0242EA0E02CCF81810CCF8202095
:1030F000DCF8081041F0470121F0300127E06F2B88
:1031000032DDB3F5005F73D0B3F5805F21D0702B53
:1031100040F08180D1E901E3C968DCF8082043EA86
:103120000E0322F47F4243EA01211143CCF8081038
:10313000DCF8081041F0770109E00BB1102B6AD1DF
:10314000DCF8081021F07001194341F00701CCF8B8
:1031500008100022012180F83D10002180F83C1069
:10316000BDE8804010467047502B21D0602B52D1D3
:10317000D1F804E0C968DCF82030DCF8202022F027
:103180001002CCF82020DCF8182022F4704242EA29
:10319000013123F0A00242EA0E12CCF81810CCF84C
:1031A0002020DCF8081041F0670121F01001CEE783
:1031B000D1F804E0C968DCF82030DCF8202022F0E7
:1031C0000102CCF82020DCF8182022F0F00242EABC
:1031D000011123F00A0242EA0E02CCF81810CCF8D2
:1031E0002020DCF8081041F0570121F02001AEE763
:1031F000D1E901E3C968DCF8082043EA0E0322F4B0
:103200007F4243EA01211143CCF80810DCF8081092
:1032100041F480419BE701229CE7000090F83C309C
:10322000012B04BF022070474FEAB202032A00F2CA
:10323000EE802DE9F043DFE802F002A33973036862
:1032400042F600461D6A1A6AC4F2010622F0010223
:103250001A621A465C6852F818CFB3428E68D1F8E9
:1032600000E025F0020545EA06050CD1CE68D1E95B
:10327000057824F4407425F00C0526F004063C4340
:10328000354344EA08042CF0730747EA0E075C60F4
:103290009F614F6809695F631D629F6947F0080776
:1032A0009F619F6927F004079F61A5E0036842F6CC
:1032B00000461D6A1A6AC4F2010622F480721A627C
:1032C0001A46D3F804C052F81CEFB3428E680C685B
:1032D00025F4007545EA06250FD1CE68D1E9059899
:1032E000360240F2FF4725F44065BE4335432CF4D7
:1032F000405748EA090647EA061C2EF073072743A1
:10330000C3F804C0DF614F680969DF631D62DF69CC
:1033100047F00807DF61DF6927F00407DF616BE032
:10332000036842F60047D3F820C01A6AC4F20107C6
:1033300022F480521A621A465C6852F81C5FD1F877
:1033400000E08E68BB4204D14F6924F4804444EA13
:1033500087142CF4005747EA063725F4E64646EA78
:103360000E265C60DE614E6809691E641F62DF69BB
:1033700047F40067DF61DF6927F48067DF613AE0C7
:10338000036842F600461D6A1A6AC4F2010622F07A
:1033900010021A621A46D3F804C052F8184FB3420A
:1033A0008E68D1F800E025F0200545EA06150FD11A
:1033B000CE68D1E905986FF0400725F0C00507EA0F
:1033C000061635432CF4406748EA090647EA860C9E
:1033D00024F4E64444EA0E27C3F804C09F614F6812
:1033E00009699F631D629F6947F400679F619F6938
:1033F00027F480679F610902136819431160002157
:10340000BDE8F043002280F83C20084670470121C7
:10341000F8E70000002804BF0120704710B590F8BD
:103420003D1031B9002180F83C10044600F066F8E8
:103430002046022180F83D10016840F2FF740B68BD
:10344000C4F2000442F6004CA142C4F2010C05DCB7
:10345000B1F1804F0AD040F2004203E0614505D04F
:1034600040F60002C4F20002914203D1826823F0C8
:1034700070031343A14205DCB1F1804F0AD040F242
:10348000004203E0614505D040F60002C4F20002AC
:10349000914203D1026923F440731343846923F0FA
:1034A0008002D0F804E0C368224361450A60CB6221
:1034B000C1F828E002D14269CCF8302001224A61EB
:1034C0000B69DB0703D00B6923F001030B6180F864
:1034D000462080F83E2080F83F2080F8402080F889
:1034E000412080F8422080F8432080F8442080F872
:1034F000452080F83D20002010BD000070470000EE
:10350000FEE7000040F23850C2F20000FEF7EEBACB
:1035100040F23850C2F20000FEF790BB10B581B007
:1035200000210091406A40F20001C2F2000190F8CF
:103530003DC009684BF28952C908C1F2F842A1FBAB
:103540000212110A2322514300910099F9B1009906
:10355000013900910268116889051CD50099B1B143
:103560000099013900911168890514D5009971B14C
:10357000009901390091116889050CD5009931B184
:1035800000990139009111688905DED403E0016CCE
:1035900041F020010164446B4FF0000E002C1CBF71
:1035A0000021A162816B00291CBF00228A6202688F
:1035B000002C136823F480631360A0F82AE018BF7E
:1035C000C4F834E000291CBF00234B63116821F0CC
:1035D0000101116090F83D1060290BD1202180F885
:1035E0003D10002180F83E10016401B0BDE810409C
:1035F000FEF778BA0CF0280128290DD1116841F0A6
:1036000001011160116841F48061116000210163C2
:10361000282180F83D1005E0202180F83D10002190
:1036200080F83E1001B0BDE81040FEF707BE000074
:1036300010B5044690F83D1090F83E00B0F110022D
:1036400018BF0122403818BF0120024208BF2229BA
:103650000AD001F0280028280CD10020206328205F
:1036600084F83D00206813E02068026822F40062BC
:10367000026000E020684268120507D4602905D086
:10368000202184F83D10002184F83E1000212163A0
:10369000416809051AD494F83D1060293CD12021D5
:1036A00084F83D10002121644169490606D500696E
:1036B000616A0870616A206801316162016821F005
:1036C000010101602046FEF70DFA45E0416821F452
:1036D00000614160606B90F82110012929D1A06B35
:1036E00043F21D51C0F600014163FDF74DFF98B351
:1036F00020684169490606D50069616A0870616AF7
:10370000206801316162016821F00101016020201F
:1037100084F83D00A06B1DE04169490605D50069AC
:10372000616A0870606A013060622046FEF786FDBB
:1037300012E043F21D51C0F600014163FDF724FF82
:1037400050B12168606B0A6822F001020A602021F2
:1037500084F83D10416B8847206C000704D0206836
:10376000416821F4E061416094F83D00216C490713
:1037700058BF10BD28280FD10020CFF6FF70E0629F
:1037800000212020216384F83D00204684F83E106B
:10379000BDE81040FEF704BE10BD0000C16A428DB6
:1037A000042A07D10168426A4B6823F480634B60A6
:1037B000096911E0428D032A16D102680229536873
:1037C00023F48063536005D0042903D0116821F4E9
:1037D000806111601169426A1170416A0131416270
:1037E000418D013941857047428D022A11D14A1E0F
:1037F0000F2A16D8DFE802F0081015101515151558
:1038000015151515151515080268136823F480633E
:103810000BE00168426ACBE70268136843F48063F7
:1038200003E00268136843F4007313601269436A8B
:103830001A70426AD0F800C0531C4362438D013BAA
:103840004385DCF810305370426A036801324262EB
:10385000428D013A42855A6822F440725A60202211
:1038600080F83D2090F83E300022402B80F83E202A
:1038700002D10263FEF720BFB1F1080218BF122285
:10388000203918BF11460163FEF78CBD81B090F856
:103890003D10222910D1C16A428D042A0ED301683D
:1038A000426A09691170416A01314162418D0139F1
:1038B0004185418D032959D001B07047C36A012A5F
:1038C00054D8022B52D00022009240F20002C2F2E1
:1038D000000212684BF28953D208C1F2F843A2FBEE
:1038E00003231A0A02EB82020092009A013A009224
:1038F000009A002A41D0026813689B0517D5009BE7
:10390000013B0093009BC3B313689B050FD5009B3D
:10391000013B0093009B83B313689B0507D5009B75
:10392000013B0093009B43B313689B05DDD41368F0
:1039300023F480631360536823F4E06353601269D7
:10394000436A1A70426A01324262428D013A4285EC
:10395000202280F83D2090F83E300022402B80F855
:103960003E2025D1026301B0FEF7A6BE0068416883
:1039700021F48061416001B07047016C41F0200189
:1039800001640168426A4B6823F4E0634B60096993
:103990001170416A01314162418D01394185202117
:1039A00080F83D10002180F83E1001B0FEF746BCC3
:1039B000B1F1080218BF1222203918BF1146016365
:1039C00001B0FEF7EFBC0000C16A90F83D20212A4B
:1039D00018BF7047428D4AB1416A026811F8013B35
:1039E00013614162418D01394185704711F5803F76
:1039F00018BF082917D101684A6822F4E0624A60BA
:103A00000A6842F400720A6000212022016380F8F3
:103A10003D2090F83E2080F83E10402A08BFFEF777
:103A20004DBEFEF7C1BC2029E5D001684A6822F4EA
:103A3000E0624A6011210163002180F83E102021DC
:103A400080F83D10FEF7B0BC90F83D1090F83EC0F5
:103A5000C26A038D002B08BF212919D0212905D066
:103A6000BCF1400F08BF222900D07047418D61B3DF
:103A700090F83E10402908BF00F03EB8416A026845
:103A800011F8013B13614162418D01394185704755
:103A900012F5803F18BF082A1DD101684A6822F438
:103AA000E0624A600A6842F400720A600021202243
:103AB000016380F83D2090F83E2080F83E10402AB7
:103AC00008BFFEF7FBBDFEF76FBC0068416821F43C
:103AD000806141607047202ADFD001684A6822F483
:103AE000E0624A6011210163002180F83E1020212C
:103AF00080F83D10FEF758BC90F83D10026D3AB1C9
:103B0000026D012A0FD10168826CD2B20A6119E0FC
:103B1000C26C816C012A11D10268C9B21161016DB8
:103B2000023101657047026D022A0FD1222914D19A
:103B300001680A6842F480720A6003E00268C1F317
:103B400007211161016D013101657047006841690C
:103B5000090644BF002101617047428D5AB12129F5
:103B600009D1416A026811F8013B13614162418D3C
:103B7000013941857047428D002A08BF2129EBD1C8
:103B800001684A6822F4E0624A600A6842F40072FE
:103B90000A6000212022016380F83D2080F83E1059
:103BA000FEF78CBD80B582B00FF21C0C00200821FE
:103BB00046223223CDF800C000F08AFF02B0BDE8F3
:103BC000804000F073BE00BF537461727400000047
:103BD00070B540F2F144C2F200042078192100F0DF
:103BE000010505205022192385F0010600F0FCF99B
:103BF00046F2CE2046F2C523C0F60000C0F6000310
:103C00002670002D08BF034640F2D450C2F20000D7
:103C1000017801220520002918BF022200F0B8F91E
:103C2000BDE8704000F042BE40F2D853C2F200033B
:103C300003EB001040F821207047000040F2D852FA
:103C4000C2F2000202EB0010002240F8212070476F
:103C50002DE9F04F81B00A9F144688461D46002684
:103C60001846394642462346009600F01DFA00F0F9
:103C70001DFE1420FDF7DCFD404601F060FC064609
:103C800089464FF0010B2846394600222346CDF8DD
:103C900000B000F009FA00F009FE1420FDF7C8FD9D
:103CA00049F69A1AC9F6991A49F69913C3F6C973CF
:103CB00030464946524601F055FC01F011FC0246DF
:103CC000284639462346CDF800B000F0EDF900F063
:103CD000EDFD1420FDF7ACFD49F69913C3F6D97339
:103CE00030464946524601F03DFC01F0F9FB0246E0
:103CF000284639462346CDF800B000F0D5F900F04B
:103D0000D5FD1420FDF794FD43F23333C3F6E3737E
:103D1000304649464FF0333201F024FC01F0E0FB1D
:103D20000246284639462346CDF800B000F0BCF9DB
:103D300000F0BCFD1420FDF77BFD49F69913C3F696
:103D4000E97330464946524601F00CFC01F0C8FBCD
:103D50000246284639462346CDF800B000F0A4F9C3
:103D600000F0A4FD1420FDF763FD284639464246C5
:103D70002346CDF800B000F097F900F097FD14202D
:103D800001B0BDE8F04FFDF753BD000080B582B033
:103D900041F21400C4F202000168002241F0010166
:103DA00001600068002100F00100019001980E20E0
:103DB000FEF766FD0E2002B0BDE88040FEF74EBD66
:103DC00080B586B00020CDE90400CDE9020041F2C3
:103DD0001800C4F20200016841F02001016001688E
:103DE00001F0200101910199016841F00401016095
:103DF000016801F0040101910199016841F0080195
:103E00000160006802A900F00800019001984FF4D9
:103E1000C05002900020C1F22100039001200490C4
:103E200040F60000C4F20100FDF754FD28200021F7
:103E30000022FEF725FD2820FEF710FD06B080BD0C
:103E400080B540F2385045F60001C2F20000C4F2DD
:103E5000000141F6802200234FF4804CC0F206029C
:103E600080E80E00C0E9033CC0E90533C0E9073330
:103E7000FEF7E6F9002808BF80BDBDE88040FDF7E9
:103E800075BB0000B0B594B040F2004540F28C50D4
:103E9000C4F200050021C2F2000040F2CF2240F23D
:103EA000CF730E91CDE90C110991CDE90711CDE940
:103EB0000511CDE90311CDE90111C0E90052C0E9B6
:103EC000021301618161FFF74FF8002818BFFDF769
:103ED0004DFB4FF480500B9040F28C50C2F200002A
:103EE0000BA9FFF7CDF8002818BFFDF73FFB40F204
:103EF0008C50C2F20000FFF78DFA002818BFFDF7C2
:103F000035FB40F28C500024C2F2000008A9CDE934
:103F10000844FEF7EFFF002818BFFDF727FB6020DD
:103F200001909620CDE90204059440F28C54C2F22F
:103F3000000401A920460022FFF770F9002818BFED
:103F4000FDF714FB21680020A942CDE91200119071
:103F5000109001D014B0B0BD41F21800C4F20200BC
:103F6000016841F004010160006810A900F004003C
:103F70000F900F984020109002201190139005F59B
:103F80008230FDF7A7FC14B0B0BD0000FEE70000D2
:103F900070B582B01E460D4600240A201E21502214
:103FA0001923009400F080F83DB101250A201E215C
:103FB00050221923009500F077F8062008211422DA
:103FC0002323009600F084FD02B070BDFEF78AFD49
:103FD000FEE7000080B540F27000C2F200004FF42E
:103FE0008061FCF7D2F980BD002B08BF70472DE936
:103FF000F04740F2700803EB010C13184FF0010E6C
:10400000C2F200088A4605E00AF1010A0FFA8AF1B5
:104010008C4546DD002AF7D00AF007040EFA04F4B6
:1040200001F0380108EB01116FEA04090646074662
:1040300004E000BF04373EB2B342E5DD1FFA8AF464
:104040003F2C06D8BDB27F2D03D88D5D05EA09054A
:104050008D557D1C2EB2B342D6DD3F2C06D8ADB2B5
:104060007F2D03D88D5D05EA09058D55BD1C2EB247
:10407000B342C9DD3F2C06D8ADB27F2D03D88D5D8C
:1040800005EA09058D55FD1C2EB2B342BCDD3F2C5F
:10409000D0D8ACB27F2CCDD88C5D04EA09048C5505
:1040A000C8E7BDE8F04770472DE9F047089F02EBED
:1040B000000C6FB3002A00F0978040F2700E03EB03
:1040C0000109C2F2000E4FF0010804E0013002B213
:1040D000944540F38980002BF8D085B20EEB050A99
:1040E0000F4603E001373AB29145EFDD7F2DF9D855
:1040F000BCB23F2CF6D807F03802120107F00704D3
:104100001AF8026008FA04F434430AF80240E9E7B6
:1041100092B301F00702012540F2700605FA02FE93
:1041200001F03802C2F2000606EB0219CA18013A81
:1041300002F0070705FA07F802F0380506EB051547
:1041400096B2074604E000BF01373AB2944513DD4A
:104150003F29BAB298BF7F2A05D819F8024044EA2D
:104160000E0409F802403F2E98BF7F2AECD8AC5CC1
:1041700044EA0804AC54E7E7002B08BFBDE8F08729
:1041800003EB010E40F27003ACF10102C2F2000336
:1041900092B203EB000813444FF0010C04E000BF9F
:1041A00001310CB2A6451FDD7F288DB298BF3F2D8F
:1041B0000BD801F038073F0101F0070618F8074057
:1041C0000CFA06F6344308F807407F2A98BF3F2DC3
:1041D000E6D801F038052D0101F007045E5D0CFA08
:1041E00004F434435C55DBE7BDE8F087B0B582B03A
:1041F00040F238544FF42E40C2F20004ADF80600ED
:10420000C8250DF106022046782102230095FEF70D
:10421000CDF84FF45540ADF806000DF106022046EA
:10422000782102230095FEF7C1F84FF40040ADF865
:1042300006000DF106022046782102230095FEF7C4
:10424000B5F84FF42840ADF806000DF106022046FF
:10425000782102230095FEF7A9F84FF47C50ADF8C1
:1042600006000DF106022046782102230095FEF794
:104270009DF84FF45340ADF806000DF106022046BC
:10428000782102230095FEF791F80020ADF8060092
:104290000DF106022046782102230095FEF786F8EC
:1042A0004FF48040ADF806000DF10602204678215B
:1042B00002230095FEF77AF84FF42140ADF806008E
:1042C0000DF106022046782102230095FEF76EF8D4
:1042D0004FF44840ADF806000DF106022046782163
:1042E00002230095FEF762F84FF45A40ADF806003D
:1042F0000DF106022046782102230095FEF756F8BC
:104300004FF49050ADF806000DF1060220467821DA
:1043100002230095FEF74AF84FF40140ADF806007D
:104320000DF106022046782102230095FEF73EF8A3
:104330004FF44F40ADF806000DF1060220467821FB
:1043400002230095FEF732F84FF45940ADF806000D
:104350000DF106022046782102230095FEF726F88B
:104360004FF47140ADF806000DF1060220467821A9
:1043700002230095FEF71AF84FF45B40ADF80600F3
:104380000DF106022046782102230095FEF70EF873
:104390004FF44050ADF806000DF10602204678219A
:1043A00002230095FEF702F84FF42440ADF8060012
:1043B0000DF106022046782102230095FDF7F6FF55
:1043C0004FF42640ADF806000DF106022046782194
:1043D00002230095FDF7EAFF4FF40D40ADF806000B
:1043E0000DF106022046782102230095FDF7DEFF3D
:1043F0004FF4A050ADF806000DF1060220467821DA
:1044000002230095FDF7D2FF4FF42F40ADF80600D0
:104410000DF106022046782102230095FDF7C6FF24
:1044200040F27000C2F200004FF48061FBF7ADFF74
:1044300000F03CFA02B0B0BDF0B5C1B001AF144617
:104440000D46064646AA384619460092FBF728FF55
:10445000304629463A46234600F090F941B0F0BD77
:104460002DE9F04F87B09346002B5AD003EB010E95
:104470000BEB000A4FF0010C0C46894606E000BF2A
:1044800009F101090FFA89F4A6454ADDBBF1000FD5
:10449000F6D009F0070240F270050CFA02F204F0BF
:1044A0003804C2F2000505EB04156FEA020806465F
:1044B000074603E004373EB2B245E1DD1FFA89F456
:1044C0003F2C06D8BAB27F2A03D8AA5D02EA0802B6
:1044D000AA557A1C16B2B245D2DD3F2C06D892B24C
:1044E0007F2A03D8AA5D02EA0802AA55BA1C16B2AE
:1044F000B245C5DD3F2C06D892B27F2A03D8AA5D0B
:1045000002EA0802AA55FA1C16B2B245B8DD3F2CE1
:10451000D0D892B27F2ACDD8AA5D02EA0802AA5565
:10452000C8E75A1E02EB5272D210029201EB51728E
:10453000D31003EBE13322F00702019308238A1A18
:1045400003EA11310A440BF00301039140F27001B8
:10455000C2F200011FFA82F8C2F10802014495B2CA
:10456000CDF814B00BF0FC0B009100230021069154
:1045700008E000BF069901310691CBB20299994239
:10458000C0F2F98005990029F4D0019A0599D6184E
:104590000493042906F101036CD24FF0000C039937
:1045A000049F0029E6D00599109A0CEB000A07FB3E
:1045B000012E40F27001C2F2000101EBC619BAF1FE
:1045C0007F0F09F1800114D8072E08D81EF80C209F
:1045D00019F80A4002FA08F2224309F80A20072BC8
:1045E00007D81EF80C2011F80A40EA40224301F8CF
:1045F0000A20039A012ABDD00CF1010404EB000A41
:10460000BAF17F0F14D8072E08D81EF8042019F825
:104610000A7002FA08F23A4309F80A20072B07D871
:104620001EF8042011F80A40EA40224301F80A204B
:10463000039A022A9ED00CF1020A0AEB000CBCF18C
:104640007F0F97D8072E08D81EF80A2019F80C40BB
:1046500002FA08F2224309F80C20072B3FF68AAF32
:104660001EF80A2011F80C30EA401A4301F80C2019
:1046700080E700BF069F4FF0000CFFB2D419009AEC
:1046800002EBC41E109A01FB072904E00CF1040C94
:10469000E3453FF484AF00EB0C0ABAF17F0F16D864
:1046A000072E08D819F80C401EF80C7004FA08F40C
:1046B0003C430EF80C40072B09D819F80C400EEBC0
:1046C0000C0797F88020EC40224387F880200AF1FD
:1046D00001027F2A18D8072E09D809EB0C0252785C
:1046E0000EEB0C04677802FA08F23A436270072B6B
:1046F0000AD809EB0C0252780EEB0C0494F8817086
:10470000EA403A4384F881200AF102027F2A18D84D
:10471000072E09D809EB0C0292780EEB0C04A7784F
:1047200002FA08F23A43A270072B0AD809EB0C02EE
:1047300092780EEB0C0494F88270EA403A4384F8C5
:1047400082200AF103027F2AA0D8072E09EB0C076A
:104750000EEB0C0405D8FA78E17802FA08F211435E
:10476000E170072B92D8F97894F88320E94011433F
:1047700084F883108AE707B0BDE8F08F2DE9F04F89
:1047800087B0049212780291002A039000F08A8088
:1047900045F67E0B1C46C0F6000B0DF117064FF0D8
:1047A000230A4FF000084FF0000917E002EB420126
:1047B00045F68B22C0F6000202EB4101A1F1C005D3
:1047C0000299062208230095FFF74AFEA044B94645
:1047D00004991FFA89F00A5C002A63D050B209F1EB
:1047E0000107B0F1FF3F8DF8172015DD00208DF88F
:1047F00018000398062C404400B2D7D0082CE5D10D
:1048000045F6C541C0F6000101EB0211A1F50075A6
:10481000029908221023D6E70499B8B2085C002850
:1048200040D09BF800108DF818004FF000008DF874
:10483000190089B100255F4638463146FBF7CCFDAB
:1048400058B10135A8B200FB0AF11BF8011000FBBA
:104850000AB70029F0D100E05F46062C09F10209F1
:104860000ED0082CB4D1039802994044033700B20B
:10487000102210230097FFF7F3FD08F11008A7E7B7
:10488000039845F68B21C0F60001404401F1BA07B8
:10489000029900B2062208230097FFF7E1FD08F114
:1048A000060895E707B0BDE8F08F00002DE9F04F4E
:1048B00083B040F27000C2F2000040F2385540F27E
:1048C0007047A0F180044FF0000BC826C2F200052B
:1048D000C2F200074FF040084FF064094FF0000AA1
:1048E0004AF0B000ADF806B08DF8070028467821F0
:1048F0000DF1060202230096FDF758FD4FF480509B
:10490000ADF808002846782102AA02230096FDF798
:104910004DFD284678210DF10A020223ADF80AB0B8
:104920000096FDF743FD8034384600F8018B2146A0
:104930008022FBF7E5FC284678213A468123CDF812
:104940000090FDF733FD0AF1010ABAF1080FC7D153
:1049500003B0BDE8F08F0000704700007047000012
:1049600080B582B01420FCF763FFFFF73FFCFFF730
:1049700031FB0FF2300C0020062105220523CDF873
:1049800000C000F0A5F80FF2300C0020062105222F
:104990001423CDF800C000F09BF802B0BDE88040C1
:1049A000FFF784BF496E697469616C206C6F616444
:1049B000696E672E2E2E00004F4C45445F496E698C
:1049C0007420436F6D706C65746564210000000095
:1049D000032888BF7047F0B581B0DFE800F0022DF2
:1049E0000B1A322600207821052205230096FFF7B6
:1049F0002FF964E040F2D455C2F2000501242C7076
:104A0000FFF7E8FA00F0ECF800F0C8F80020012108
:104A10001FE040F2D450C2F2000000210170FFF705
:104A2000D9FA00F0DDF828A7002008210522192373
:104A3000009700F04DF842E040F2D455C2F2000574
:104A400000202870FFF7C6FA00F0CAF80020012104
:104A50000124FFF7F3F801200121FFF7EFF843F6F7
:104A6000D132C0F6000200200021FFF7DDF843F646
:104A7000A532C0F6000201200021FFF7D5F840F270
:104A8000F147C2F200073E78052019215022192370
:104A9000FFF7AAFA3E7036B1012E10D146F2CE23AE
:104AA000C0F6000303E046F2C523C0F600032978F0
:104AB0000520002918BF02242246FFF769FA01B039
:104AC000BDE8F040FFF7F2BECDEAB3C90000000038
:104AD000F0B5C1B01546469A0DF105071C460E46C5
:104AE00047AB3846FF210093FBF7ECFB28462146F5
:104AF00032463B46FFF7A0FC41B0F0BDFFF76ABA73
:104B000010B5FFF7FBFF40F2F954C2F20004207821
:104B1000052888BF10BDDFE800F0141A03034037F2
:104B20000220FFF755FF01200221FFF787F841F22D
:104B30007952C0F6000201200321BDE81040FFF7C2
:104B400073B8FFF70DFF0020FFF742FF23E00120BD
:104B5000FFF73EFF00200321FFF770F8012003213B
:104B6000FFF76CF844F6C532C0F6000200200221BF
:104B7000FFF75AF841F22552C0F600020120022147
:104B8000BDE81040FFF750B80320FFF721FF4FF4B6
:104B90007A70FCF74DFE0120207010BD10B582B078
:104BA00000246420232105221E230094FFF77CFAB1
:104BB0006E20232105221E230094FFF775FA02B010
:104BC00010BD000040F2F850C2F20000017801224E
:104BD00022EA010101707047FDF7D4BD7047000063
:104BE00080B582B04FF0000C012001217E221423F9
:104BF000CDF800C0FFF758FA0FF2340C022006215E
:104C000005220323CDF800C0FFF762FF40F2F95000
:104C1000C2F2000090F800C00FF21C0E0320062123
:104C20005A220323CDE900ECFFF752FF02B080BD0A
:104C30004D656E75000000004D6F646520256400B1
:104C4000FEE7000090B0FDF7ABFD00240120CDE9A8
:104C50000B44CDE9094406900A904FF4E0104FF45C
:104C6000803102250F9006A8CDE90714CDE90D513A
:104C7000FDF746FF18B1EFF3108072B6FEE70F2084
:104C8000CDE901054FF48060CDE9040401A80221BB
:104C90000394FDF733FE20B1EFF3108072B600BF2E
:104CA000FEE7FDF705FFFFF78BF8FFF76FF8FFF75B
:104CB000C7F8FFF7E7F800BFFFF722FFFCE75FEA5E
:104CC000400C08BF91F0000F4FEA8C234FEAC1223D
:104CD00043EA51514FEA1C5018BF00F5F0404FEA2B
:104CE000300018BF41F000415FEA6C5C00F02980A1
:104CF000BCF1FF3F08BF40F080407047130C06BF77
:104D000012044FF0100C4FF0000C130E04BF1202EF
:104D10000CF1080C130F04BF12010CF1040C930FDB
:104D200004BF92000CF1020CD30F04BF52000CF12F
:104D3000010C11464FF00002A0F11F00A0EB0C0087
:104D4000704711F0004F08BF704731F000413FF449
:104D5000D5AF0B0C06BF09044FF0100C4FF0000C40
:104D60000B0E04BF09020CF1080C0B0F04BF090164
:104D70000CF1040C8B0F04BF89000CF1020CCB0F5B
:104D800004BF49000CF1010CCCF1200322FA03F31B
:104D900041EA030102FA0CF2A0EB0C0000F1010061
:104DA0007047000023F07F4720F07F4C80EA03002B
:104DB00000F00040ACEB070303F57C5303F1FF0365
:104DC0002DE9804909B44FEA144324EA03484FEA25
:104DD000154B25EA0B4E0FF2042606EB13273E78FF
:104DE00003FB0667C7F5000707FB06F64FEAD64642
:104DF00006F102064FEA543707FB066CCCF1005C63
:104E00004FEA1C472CEA074C0CFB06F507FB06F49F
:104E100004EB15464FEA961649085FEA320234BFA2
:104E200000204FF000404FEAD13706FB07FC4FEA65
:104E30001C4C0CFB0BF7D21B03FB0CF761EB0701BF
:104E40000CFB0EF7B0EB074072EB17420CFB08F7B8
:104E500034BFA2EB0742B2EB074261EB17414FEAC6
:104E60000C444FEA910706FB07FC4FEA1C4C0CFB75
:104E70000BF7B0EBC74072EB573203FB0CF734BFB4
:104E8000A2EBC742B2EBC74261EB57310CFB0EF706
:104E9000B0EBC70072EB57720CFB08F734BFA2EB04
:104EA000C702B2EBC70261EB57714FEA816141EA79
:104EB00092114FEA826242EA90124FEA806004EB5C
:104EC000CC04039F4FEAD13706FB07FC4FEA1C4C8A
:104ED0000CFB0BF7D21B03FB0CF761EB07010CFB80
:104EE0000EF7B0EB074072EB17420CFB08F734BF2C
:104EF000A2EB0742B2EB074261EB17414FEA8C5538
:104F000004EB9C244FEA910706FB07FC4FEA1C4C7C
:104F10000CFB0BF7B0EBC74072EB573203FB0CF7FF
:104F200034BFA2EBC742B2EBC74261EB57310CFB77
:104F30000EF7B0EBC70072EB57720CFB08F734BFEB
:104F4000A2EBC702B2EBC70261EB57714FEA816176
:104F500041EA92114FEA826242EA90124FEA80607F
:104F600015EB4C2544F100044FEAD13706FB07FC52
:104F70004FEA1C4C0CFB0BF7D21B03FB0CF761EB4D
:104F800007010CFB0EF7B0EB074072EB17420CFB6E
:104F900008F734BFA2EB0742B2EB074261EB1741BF
:104FA0004FEA813141EA92414FEA823242EA90422D
:104FB0004FEA80304FEA0C7615EB1C1544F10004E3
:104FC00048EA03434EEA0B484FF0000EB2EB080CE0
:104FD00071EB030724BF624639464EEB0E0E4FF0CD
:104FE000000B0018524149414BEB0B0BB2EB080C84
:104FF00071EB03077BF1000B24BF624639464EEB91
:105000000E0E4FF0000B0018524149414BEB0B0BB9
:10501000B2EB080C71EB03077BF1000B24BF624677
:1050200039464EEB0E0E51EA020718BF46F0010654
:1050300016EB0E7655F1000254F1000103D5BDE8E0
:105040008901BDE80088BDE88901BDE80048B619BE
:10505000524141EB0101A3F10103704780807F7E43
:105060007D7C7B7A797877767675747372717170DE
:105070006F6E6E6D6C6C6B6A6A6968686766666590
:105080006464636362616160605F5F5E5E5D5D5C1E
:105090005C5B5B5A5A59595858575756565555558F
:1050A0005454535352525251515050504F4F4F4EEF
:1050B0004E4D4D4D4C4C4C4B4B4B4A4A4A4949493D
:1050C000484848474747474646464545454444447F
:1050D0004443434343424242424141419C46002BA8
:1050E00030D477002BD04FEA37071CB503B44FF00C
:1050F00010004FF01001BAF1000F06D0BCF1000F04
:10510000DCBF40F0080040F008014FF000000FBC89
:10511000BDE810400BF1010BBBF1010F08BF5FEAC6
:10512000170722BF12F1010211F101014FF00041F6
:1051300043F1000300F0004043EA00007047F9D358
:105140005708D0E746EA06464FEA164613F1400FE5
:105150001FDD13F1200FDFBF16430A460021203365
:105160005B42BED0C3F1200746EA06464FEA164628
:1051700002FA07F746EA070622FA03F2C3F120070C
:1051800001FA07F742EA070221FA03F14FF00003A0
:10519000A7E746EA020646EA06464FEA164646EA08
:1051A0000106BCBF46EA0646360C4FF000034FF03E
:1051B00000024FF0000194E72DE9804C70B49A464C
:1051C000934691E8380007C831EA400C48BF34EAFA
:1051D000430C03D5FFF7E6FDFFF780FFF0BCBDE809
:1051E000008C2DE9804C70B49A46934691E83800C3
:1051F00007C810F0804F08BF13F0804F03D100F0B4
:1052000005F8FFF76BFFF0BCBDE8008C20F07F478E
:1052100023F07F4C80EA030000F0004007EB0C0312
:10522000A3F57C53A3F1FE0392F0000F00F0B380CE
:1052300095F0000F00F077802DE901494FEA114009
:1052400021EA00484FEA144624EA064700FB06FC20
:1052500008FB06F607FB08F818EB06484CEB164C63
:1052600000FB07F718EB07484CEB17404FEA124BCF
:1052700022EA0B4E4FEA154625EA06470BFB06FCD1
:105280000EFB06F607FB0EFE1EEB064E4CEB164C15
:105290000BFB07F71EEB074E4CEB174B18EB0B08FD
:1052A00040F1000018EB0E0B58EB000840F1000035
:1052B0008F1A4FF000014FF000063CBFC943661B38
:1052C00014BFB5EB040C00213CBFC943F61B4FEAE9
:1052D000174427EA04454FEA1C472CEA074C04FB15
:1052E000076205FB07F70CFB05F616EB074642EBDA
:1052F000174204FB0CFC16EB0C4642EB1C421BEB6A
:10530000060658EB020241414EEA8E0E46EA9E0620
:1053100001D5BDE80189B619524141EB0101A3F164
:105320000103BDE801894FEA144524EA05464FEA26
:10533000114721EA074C05FB07F406FB07F70CFBB6
:1053400006F111EB074144EB174405FB0CFC11EB94
:105350000C4144EB1C444FEA124722EA074C05FB80
:1053600007F206FB07F70CFB06F616EB074642EBC7
:10537000174205FB0CFC16EB0C4642EB1C456A1869
:1053800054F1000148BF7047B619524141EB010189
:10539000A3F10103704795F0000F37D04FEA114297
:1053A00021EA02464FEA144724EA074C02FB07F1C0
:1053B00006FB07F70CFB06F414EB074441EB17411F
:1053C00002FB0CFC14EB0C4441EB1C414FEA15476B
:1053D00025EA074C02FB07F506FB07F70CFB06F670
:1053E00016EB074645EB174502FB0CFC16EB0C468B
:1053F00045EB1C42121951F1000148BF7047B61924
:10540000524141EB0101A3F1010370474FEA1445FA
:1054100024EA05464FEA114721EA074C05FB07F14C
:1054200006FB07F70CFB06F212EB074241EB1741B4
:1054300005FB0CFC12EB0C4251EB1C414FF000063B
:1054400048BF7047921841EB0101A3F10103704777
:10545000490050EAC12018BF04204A0D18BF40F08F
:10546000010040F2FF72B2EB515F08BF40F0020052
:10547000012808BF0520704730380A2801D20120D2
:10548000704700207047000010B500290AD0087846
:10549000002807D005487844FAF79EFF002801D07D
:1054A000002010BD0248784410BD0000620E0000CC
:1054B0005A0E000010B500290AD00878002807D03D
:1054C00005487844FAF788FF002801D0002010BD75
:1054D0000248784410BD0000520E00004A0E000041
:1054E0004FEA41034FEA5353A3F58063D3F11E0300
:1054F000C8BFD3F1210C0CDD4FF0004242EAC122BB
:1055000042EA505232FA03FC8CEAE17CACEBE170E7
:105510007047102BC4BF0020704703F5787CBCF1A6
:10552000FF3F04D06FF0004282EA2100704770B55F
:1055300000F0C2F84992248000207047F2E7B0FAE8
:1055400080F310FA03F10AD0C3F11D0303F5806361
:105550004FEA03524FEA415002EBD12170474FF01E
:105560000000704770B5DFF848C11CEA111E1EBF6D
:105570001CEA13159EEA0C0F95EA0C0F00F06F80E1
:1055800081EA03044EEAD47EAE4421EA4C1123EAB8
:105590004C1341F4801143F48013AEF17F7EA1FBE4
:1055A000024CA0FB0365361955EB0C05A1FB034C1F
:1055B0004CF10003A0FB021C16EB0C06654153F1F5
:1055C0000003094218BF46F0010613F4007F0BD117
:1055D0004FEA03314FEA053041EA155140EA1650CF
:1055E00034036FF003020AE04FEAC3214FEAC520FB
:1055F00041EA555140EA5650F4026FF0020202EBC4
:105600002E4201EB025585EACE710AD05FEA440CC6
:1056100018BF24F0004450F1000041F1000120EADD
:10562000D47040F2FE7C624500D270BDA84214BF27
:105630004FF080444FF04044002E08BF0024BEF1DC
:10564000806FA8BFA1F1C041BDE8704080F28280A8
:1056500001F1C04101F000414FF0000070470CEA39
:1056600013159EEA0C0F18BF95EA0C0F06D081EABD
:10567000030E4FF000000EF0004170BD00F01CF86A
:105680008900013E00F007B800F009B84FEA430C6A
:105690005FEA5C5C08D081EA030100F05BB84FEA86
:1056A000410C5FEA5C5CF6D102494FF000007047A4
:1056B0000000FF070000F87F0EF1020E2EF0030E2F
:1056C0005EF8046B364205D4012A43EB030515F559
:1056D000001F12D8012841EB010C1CF5001F0CD84B
:1056E0000ED14FEAD17C0CEB4C0C0CF1020C15F5F1
:1056F000001F08BF4CEBD37C04E04FF0080C01E026
:105700004FEAD37C0CEB4C0526FA05F606F00706AB
:10571000B6F1040C06D20EEB860CBDE870404CF0DE
:10572000010C6047DFE80CF0090B02024FF000416A
:10573000A1F500214FF0000070BD19461046012868
:1057400051EB010418BFD4F5001484BF002001F010
:10575000004170BD0808A0F500114FEA3101704703
:10576000FBF7E4BAFBF718BC0000000000000000E3
:105770003031323334353637383941424344454687
:105780004030580030313233343536373839616281
:105790006364656640307800040000080000000083
:1057A0000000000200010000103031323334353681
:1057B000373839616263646566787000303132333E
:1057C0003435363738394142434445465850000055
:1057D00002400000000000A00000000005400000A2
:1057E000000000C8000000000C4000000000409CC9
:1057F00000000000194000000020BCBE00000000B6
:1058000034400000BFC91B8E00000004B5400000FA
:10581000504BCFD06607E2CF010000006C41000082
:105820003E8251AADFEEA73401000000D9420000F9
:10583000DCB5A0E23A301F97FFFFFFFFB445000040
:10584000FD25A0C8E9A3C14FFFFFFFFFFF3F0000F8
:105850000000008000000000FF3F0000000000800A
:10586000000000000000000000000000010203042E
:105870000607080900000000010203040102A3ACAE
:105880000000000000000000000000000000000018
:105890000000005838000000000000000000000078
:1058A00000A1A300000000000000000000000000B4
:1058B0000000000000001824241800000000000070
:1058C00000000000C4E300008060F8074020180FCB
:1058D00008C80808281800010000FF00100C034049
:1058E000807F0001061800BAC3001010F01F10F0EE
:1058F00000808282E2928A8680004022150816612A
:10590000000040807F0000000000CAC0002020206E
:10591000FE2020FF202020FF20202020000000006B
:105920007F404047444444474040400000BDE700BA
:10593000000000FE929292FE929292FE0000000001
:1059400008080484621E010001FE02040408080025
:10595000D7D400000000F0909C93484808F800005D
:105960000000000000007F2424242212103F0000C9
:10597000000000B6AF00004040C82824240020A04A
:105980007F10F000000000000E09044526180611E3
:10599000201807000000D1AD00001088443300FC3F
:1059A00094947C4A4AC900000002017F2018070035
:1059B0007F2A2A15153F000000BCA3000080844800
:1059C000C000E808F90AF844840400000010101B25
:1059D0001411242320244F4040410000B1DC0080FA
:1059E0008044D800F8A4BC90B28C78480000000035
:1059F00010131C1217142720245F4242404000D588
:105A0000CF0000FC0432CE2024AC55525ED21210DE
:105A10000000007F010211101017157D0A0B080805
:105A20000000CDEA0000081C0E242424252726248B
:105A300034249C0E0400808141713F0F01017FFFDF
:105A4000C1C1C1F960B3C900000000FCF8888888B2
:105A5000C8BFFEC90A8EEA480080703F0F10301F91
:105A60008F40673F3C77C1F0000000FF010101312A
:105A700009090909897101010101FFFF8080808006
:105A800080809681808080808080FF000000000000
:105A9000000000002F000000000700070000147F36
:105AA000147F1400242A7F2A120023130864620042
:105AB000364955225000000007000000001C22411A
:105AC00000000041221C000014083E0814000808D1
:105AD0003E0808000000A060000008080808080050
