:020000040800F2
:10000000A80B002061020008E92C0008C52900089F
:10001000952C0008491500085D3900080000000013
:10002000000000000000000000000000753700081C
:100030004D1500080000000071370008E538000881
:100040007B0200087B0200087B0200087B0200089C
:100050007B0200087B0200087B0200087B0200088C
:100060007B0200087B0200087B0200087B0200087C
:100070007B0200087B0200087B0200087B0200086C
:100080007B0200087B0200087B0200087B0200085C
:100090007B0200087B0200087B0200087B0200084C
:1000A0007B0200087B0200087B0200087B0200083C
:1000B0007B0200087B0200087B0200087B0200082C
:1000C0007B0200087B0200087B0200087B0200081C
:1000D0007B0200087B0200087B0200087B0200080C
:1000E0007B0200087B0200087B02000800F002F897
:1000F00000F0A6F814A696E8000CB244B344DA4522
:1001000001D100F09DF8BAE80F000FA696E8300084
:10011000A5EB040504EB0607AAEB0704A7F101070A
:100120004FEA15154FEA3414A4F10104AC4201D38F
:1001300000F086F813F0010F18BFFB1A43F001031B
:1001400000F001F8DBE71847A4510000C45100009B
:10015000103A24BF78C878C1FAD8520724BF30C8F3
:1001600030C144BF04680C60704700007047000055
:100170000023002400250026103A28BF78C1FBD8B0
:10018000520728BF30C148BF0B6070476E2900F08E
:10019000DF81702900F02383662904F06D816529D1
:1001A00004F06A81672904F06781612904F066819F
:1001B00003681B0A28BF41F08001692900F08C8187
:1001C000642900F08981752900F086816F2900F08B
:1001D000B182782900F0EF82E92900F04B82E4290E
:1001E00000F04882F52900F04582EF2900F0AE8248
:1001F000F82900F0EE820368DB0928BF41F0800196
:10020000632901F02180732901F02680E32901F0A0
:100210003180F32901F03680002070471FB501F0CE
:1002200087F804000020002103F0D0FF401C60602C
:100230000020002103F0B4FFE0601FBD10B510BD29
:1002400001F048F81146FFF7E9FF03F089FB01F0E0
:1002500025F903B4FFF7F2FF03BC01F06DF90000CC
:100260000948804709480047FEE7FEE7FEE7FEE74A
:10027000FEE7FEE7FEE7FEE7FEE7FEE70448054986
:10028000054A064B70470000E9380008ED000008F9
:10029000A8050020A80B0020A8070020A807002020
:1002A0007CB51D4616460C00009007D04142A14285
:1002B00002D32044401E01E04FF0FF30064B7B4448
:1002C0002A4669460190304600F05BF9002C02D0C6
:1002D000009A002111707CBDE702000040EA010392
:1002E00010B59B070FD1042A0DD310C808C9121FDF
:1002F0009C42F8D020BA19BA884201D9012010BD19
:100300004FF0FF3010BD1AB1D30703D0521C07E0E5
:10031000002010BD10F8013B11F8014B1B1B07D149
:1003200010F8013B11F8014B1B1B01D1921EF1D1BA
:10033000184610BD032A40F2308010F0030C00F084
:10034000158011F8013BBCF1020F624498BF11F80F
:1003500001CB00F8013B38BF11F8013BA2F10402C8
:1003600098BF00F801CB38BF00F8013B11F0030340
:1003700000F00483083AC0F0088051F8043B083AC2
:1003800051F804CBA0E80810F5E7121D5CBF51F846
:10039000043B40F8043BAFF30080D20724BF11F8C0
:1003A000013B11F801CB48BF11F8012B24BF00F825
:1003B000013B00F801CB48BF00F8012B70474FF01C
:1003C000000200B5134694469646203922BFA0E8A5
:1003D0000C50A0E80C50B1F12001BFF4F7AF0907B1
:1003E00028BFA0E80C5048BF0CC05DF804EB8900A2
:1003F00028BF40F8042B08BF704748BF20F8022BE5
:1004000011F0804F18BF00F8012B704770477047FC
:10041000704770B5044685690068C10601D530266D
:1004200000E02026C00707D070BDD4E90121304686
:100430009047206A401C20626D1EF6D570BD70B5D5
:10044000044685690078C00707D170BDD4E9012151
:1004500020209047206A401C20626D1EF6D570BD9A
:1004600009684A0501D540B27047C905FCD500B2FC
:10047000704709684A0501D5C0B27047C905FCD567
:1004800080B2704770B50C460546012A05D0287821
:10049000800600D5EA69002302E0012305E05B1C29
:1004A000934202D2E05C0028F9D1A869E618C01A8C
:1004B000A861286A184428622846FFF7AAFF04E0CA
:1004C000D5E9012114F8010B9047B442F8D328462E
:1004D000FFF7B5FF70BD00002DE9F041064600248E
:1004E00010687529314616A510D0FFF7B9FF00280E
:1004F00002DA404213A507E031688A0701D512A548
:1005000002E0490704D511A5012401E0FFF7B1FF7E
:1005100000210A2206F1240709E0B0FBF2FCB0FB3F
:10052000F2F302FB1C00303078541846491C0028B6
:10053000F3D123462A463046BDE8F04100F095BA93
:10054000000000002D0000002B0000002000000033
:1005500011680268006A530501D508700AE0D305E6
:1005600001D5088006E0130603D5C217C1E90002D1
:1005700000E008600120704701694A1C02610878A8
:10058000704700B58FB0CDE90131002105910549D3
:100590007944CDE903101146684600F02BF90FB0FD
:1005A00000BD0000E5FFFFFFD1E900239A4202D21F
:1005B000531C0B60107070472DE9FF5F15468A468B
:1005C0000446DFF8AC80F8440027D8E900103E4626
:1005D000CDE9001010E03AF816106A4602A800F0C3
:1005E00055FE411C07D02178890603D5E2693918E8
:1005F00091420DD80744761C2078800602D5E06928
:10060000B84205DDAE42E6DB3AF816000028E2D13A
:10061000A069C01BA0612046FFF7FBFED8E90010CF
:10062000CDE90010002017E03AF818106A4602A839
:1006300000F02CFEB0F1FF3F81460BD000250DF1FC
:10064000080B05E0D4E901211BF8050090476D1C5B
:100650004D45F7D308F10100B0428046E4DB206A43
:10066000384420622046FFF7EAFEBDE8FF9F000005
:10067000B63E00002DE9F0418046D21D22F007026F
:100680000025D2E90002F52915A614D0011E72F149
:10069000000106DA0023D0EB030063EB020211A68F
:1006A00008E0D8F800108B0701D50FA602E0490733
:1006B00001D50EA601251146002408F1240704E007
:1006C00000F08EF930323A55641C50EA0102F7D13D
:1006D0002B46324621464046BDE8F04100F0C5B900
:1006E000000000002D0000002B0000002000000092
:1006F00030B4002100F1240408E002F00705D2081C
:10070000303542EA4372DB086554491C52EA03055E
:10071000F3D10468002310A2250708D504F02004B3
:100720000C4304D0C46901230CA2641EC46130BC14
:1007300000F09BB910B5044621461068FFF799FEFA
:1007400002462046BDE810400023D1E7D21D22F02A
:100750000701D1E90023CBE70000000030000000D2
:10076000F0B40D460188090502D5214C7C4402E015
:100770001F4C7C440E34002100F1240608E002F0F6
:100780000F071209E75D42EA03721B097754491CFF
:1007900052EA0307F3D102780023120704D5702D23
:1007A00006D009B1022311342246F0BC00F05DB935
:1007B00001231034F8E770B504460D462146106851
:1007C000FFF757FE024629462046BDE87040002349
:1007D000C6E7D21D22F00703D3E90023C0E7036870
:1007E000126843F0200303600823C3610023B7E7C6
:1007F000183D00002DE9F05F894604464FF0000ADD
:10080000DFF874B1FB44C0F820A02046E1688847B7
:10081000002874D0252806D0D4E901219047206A09
:10082000401C2062F1E700265F462046E1688847C9
:100830002028054607DB312D05D2781910F8200C49
:1008400008B10643F1E7B00701D526F00406C4F865
:100850001CA00027C4F818A02A2D09D0284603F0B0
:1008600097FC38B304EB8708303DC8F8185019E0FE
:1008700059F8041B204604EB87029161E168884720
:10088000012F054618D1E069002820DA26F020065D
:100890001DE0D8F8180000EB800005EB4000303870
:1008A000C8F818002046E1688847054603F070FC48
:1008B0000028EED1012F0AD02E2D08D12046E16864
:1008C00088477F1C0546022F46F02006C4DBA0693E
:1008D000002803DA404246F00106A061F00701D08B
:1008E00026F010066C2D0BD0682D09D04C2D39D078
:1008F0006A2D35D0742D35D07A2D33D016E038E0FE
:10090000E1682F4620468847B842054609D16C2F3A
:1009100026D04FF48060E1680643204688470546AC
:1009200004E06C2F1AD04FF4807006430DB3A5F18C
:100930004100192802D8203546F400664A46294667
:10094000204626604E46FFF721FC80B101280BD0DF
:10095000F61D26F0070000F1080956E74020E4E7FD
:100960008020D8E70020D6E706F104094DE72846A5
:1009700052E7206ABDE8F09FA83C000010B5203A7D
:10098000C0F00B80B1E81850A0E81850B1E818503A
:10099000A0E81850203ABFF4F5AF5FEA027C24BF0C
:1009A000B1E81850A0E8185044BF18C918C0BDE8F5
:1009B00010405FEA827C24BF51F8043B40F8043BBE
:1009C00008BF7047D20728BF31F8023B48BF11F873
:1009D000012B28BF20F8023B48BF00F8012B7047CD
:1009E00030B5B0F10A0271F100034FEA900E4EEA01
:1009F000817EB0EB0E0061EB91014FEA101E4EEAD2
:100A0000017E10EB0E0041EB11114FEA102E4EEA61
:100A1000016E10EB0E0041EB11214FEA104E4EEA31
:100A2000014E10EB0E0041EB1141401841F1000165
:100A30004FEAD00040EA41704FEAD1014FEA810409
:100A400044EA907410EB800544EB01046D1944EB0B
:100A50000404521BA3414FF0000348BF0A3200D5E3
:100A600030BD401C41F1000130BD2DE9F0470D467D
:100A700099469246044600F124080168880604D588
:100A8000E06921F01001216000E00120A84201DDB1
:100A9000471B00E00027A1697A1902EB0900081A38
:100AA000A0612078C00602D42046FFF7B2FC0026E1
:100AB00008E0D4E901211AF806009047206A401C9A
:100AC000761C20624E45F4DB2078C0060AD520460D
:100AD000FFF79FFC06E0D4E9012130209047206A0F
:100AE000401C2062381EA7F10107F4DC07E0D4E9BE
:100AF000012118F805009047206A401C2062281E3A
:100B0000A5F10105F3DC2046FFF799FC20780006EB
:100B100002D50220BDE8F0870120FBE72DE9FF4F59
:100B20000C461E464FF0FF378BB0D2E90001DDF8CE
:100B300060800A908A46C1F30A5505B93D460021F6
:100B400008464FF00000BAF1000F00F4400005DA4B
:100B500000EB80004FF4400101EA50004FEA905949
:100B6000B9F1010F00DDB9460A9850EA4A000ED0EB
:100B700044F61050A5F2FF3545432F14B8F1000F8D
:100B80001ED07542291E1EDDC9F100021CE0B8F11D
:100B9000010F4FF0000001D0302103E0F24305E0E7
:100BA0002154401CB042FBDB30460022002121547E
:100BB0000B99C1F80880C1E900200FB0BDE8F08FA3
:100BC000BD1B6D1CDEE74A4600DA694206A800F04C
:100BD000F3FB06AB93E8070003AB83E8070050463E
:100BE0000A9902F0F8FE8DE80700A0F500501F38C2
:100BF00000900398002D0ADD42F21F014A46084486
:100C0000002303A90390684603F062F909E0A0F508
:100C100000504A461F38002303A90390684603F09A
:100C20006CF98DE807000004000C03D04FF0FF3092
:100C3000410800E01046B8F1000F03D000220092F6
:100C400015461EE0751E05D4FFF7CAFE3032625508
:100C50006D1EF9D5B3460122084302D000227F1C45
:100C600004E02078302801D100227F1E002A099755
:100C700084D01DE0112D07DAFFF7B2FE3032625545
:100C80006D1C50EA0102F5D1084302D00098C8B1AA
:100C90000EE00021681E05E0235C625C6354225470
:100CA000401E491C8142F7DBAB46A81B401E099041
:100CB000002004F80B000B98099AC0F80880C0E9DE
:100CC000002B7AE711264FF0000857E72DE9F04F87
:100CD00088460446D21D22F0070191B0D1E90001F7
:100CE000CDE90A0103F040FA02460B98C00F01D08B
:100CF0002D2007E02068810701D52B2002E020216C
:100D000001EAC000032A099001D0072A05DB034647
:100D10004146204600F010FB0BE12078800601D50B
:100D2000E06900E00620B8F1650F814606D0B8F111
:100D3000660F18D0B8F1670F70D131E00020B9F11B
:100D4000110F009001DB112301E009F101030AAA50
:100D500001A90CA8FFF7E2FEDDE90C70002609F1FD
:100D60000105834647E001204B4600904FF00047C5
:100D70000AAA01A90CA8FFF7D1FEDDE90DB00C9974
:100D80005D46002610B909F101000D18B9EB050008
:100D900003D4C0F1FF3609F10105A5EB09002BE0F2
:100DA000B9F1010F01DA4FF001090020B9F1110F7B
:100DB0000090484601DD112300E003460AAA01A97C
:100DC0000CA8FFF7ABFEDDE90C704D46002683460C
:100DD000207800070AD4AB4500DA5D4601A8012D52
:100DE00004DD411911F8011C302907D04F4502DA02
:100DF00017F1040F04DA012082460FE06D1EEEE7C2
:100E0000002F02DCED1B3E4403E0781CA84200DD0D
:100E10007D1CB81B00F1010A4FF000472078000745
:100E200003D4AA4501DB4FF0FF3A0021B7F1004F90
:100E30000DF143088DF8431024D002202B23002FFE
:100E400001DA7F422D230A21021EA0F1010000DCFD
:100E50005FB197FBF1FC97FBF1F201FB1C7C17469D
:100E60000CF1300C08F801CDEEE7A8F10100037099
:100E70002188090501D5452100E06521A0F101087F
:100E800000F8011C09980FA9A1EB0807FF1D00B18C
:100E90000120411901EBEA70A1693844081A401E8B
:100EA000A0612078C00602D42046FFF7B2FA099864
:100EB00028B1D4E901219047206A401C20622078A3
:100EC000C00622D52046FFF7A4FA1EE0002E04DB60
:100ED000B34502DD01A8805D00E03020D4E90121A6
:100EE0009047206A401C2062761CAAF101005FEA4C
:100EF000000A0AD100F01CFAC0680168405CD4E91D
:100F000001219047206A401C2062281EA5F101059E
:100F1000DCDC07E0D4E9012118F8010B9047206AD6
:100F2000401C2062381EA7F10107F3DC2046FFF7C2
:100F300086FA032011B041E62DE9F04F04460D4634
:100F4000D21D22F0070089B0D0E900974846394603
:100F500003F00AF90246F80F01D02D2307E02068BC
:100F6000810701D52B2302E0202101EAC0038DF87F
:100F700020300BB1012000E00020032A824601D07E
:100F8000072A04DB2946204600F0D6F93FE1207805
:100F9000800601D40D2500E0E569C7F30A560D2D42
:100FA00049DA00214FEA175B08464FF00000002F96
:100FB00000F4400007DA00EB80004FF4400100EB42
:100FC000D07001EA60008115012901DD4FF0FF3189
:100FD00000224FEA850CBCF1180F06D31346ACF182
:100FE00018004FF08052C24003E04FF4801323FA00
:100FF0000CF30CF10C0CBCF1200F04D3ACF1200C61
:1010000009FA0CF001E007FA0CF000294FF0004853
:1010100001DD18B90FE00ED140450CD319EB0209E0
:101020005F4121B9404502D19F4329EA0209BBEB48
:10103000175F00D0761C2088000502D57B487844D5
:1010400002E07A487844193808AA302302F80A30B6
:10105000037C0AF10101002E0AF1020A53546A4688
:1010600002DC4FF0300101E04FF031014FF0010898
:101070008DF8001002D0A6F2FF3603E059EA4701CE
:1010800000D06B4E002D02DC2178090704D54FF00B
:1010900002082E218DF80110C44600210BE0C7F391
:1010A00003433F01C35C491C6D1E02F8083005294B
:1010B00008F1010801DA002DF1DC00210CE000EB61
:1010C0001973491C1B786D1E082902F808304FEA75
:1010D000091908F1010801DA002DF0DC21688B06FE
:1010E00002D516E0A8F10108E04505DD02EB080392
:1010F00013F8013C302BF5D0B8F1000F09DD02EBFD
:10110000080313F8013C2E2B03D1090701D4A8F1E1
:101110000108002D05DD3E2102F808106D1E08F1C2
:101120000108407C002E02F8080008F1010804DAEA
:101130002D20764202F8080002E02B2002F8080079
:101140000A214FF47A70864208F101080BDB96FB06
:10115000F0F3303302F8083096FBF0F308F10108A1
:1011600000FB136601E0642E0CDB642096FBF0F3B9
:10117000303302F8083096FBF0F308F1010800FB69
:10118000136601E00A2E06DB96FBF1F0303002F820
:10119000080008F1010896FBF1F001FB1060303007
:1011A00002F80800A16908F1010808EB050202EB4A
:1011B0000A00081AA0612078C00602D42046FFF772
:1011C00028F9216A08AE01EB0A00206204E0D4E9A4
:1011D000012116F8010B9047BAF1010AF7D22078E5
:1011E000C00602D52046FFF714F96E4609E016F84E
:1011F000010B3E280FD0D4E901219047206A401C02
:101200002062B8F10108F2D22046FFF718F909B0C0
:101210000320BDE8F08F206A2844206203E0D4E96F
:101220000121302090476D1EEBD3F8E79234000087
:1012300002FCFFFF10B5436913B1AFF3008001E07A
:10124000FFF720F9012010BD127800F124010A7087
:1012500000224A700122EDE711684FF0FF32E9E702
:1012600010B5436913B1AFF3008001E0FFF7A4F9B3
:10127000012010BD128800F1240182840022C28462
:101280000122EDE711684FF0FF32E9E72DE9F04167
:1012900016460C46054600F043F8036893F8010132
:1012A000012807D0FF2C12D8185D80B101202C70C6
:1012B000BDE8F081D3F807013246214603F2071357
:1012C000C7182846BC46BDE8F041002360474FF0F0
:1012D000FF30EDE7754600F0EBF8AE4605006946D5
:1012E000534620F00700854618B020B5FEF7C6FF2C
:1012F000BDE820404FF000064FF000074FF0000817
:101300004FF0000BAC46ACE8C009ACE8C009ACE853
:10131000C009ACE8C00921F007018D467047000004
:1013200010B500F005F8001D10BD00BFA12E000093
:1013300000487047400000202DE9F0411F46044658
:1013400003260168072A01F4006004DB08B116A532
:1013500005E016A503E008B115A500E015A521F0EC
:1013600010002060A069C01EA0610FB1401EA061E6
:101370002046FFF74EF84FB1D4E901213846904797
:10138000206A401C2062C01C206206E0206AFAE746
:10139000D4E9012115F8010B9047761EF8D22046BA
:1013A000FFF74DF8BDE8F0814E414E006E616E00D2
:1013B000494E4600696E66002DE9F04781461646A3
:1013C0008AB0354878440DC88DE80D00324878441D
:1013D000801C03AC0DC884E80D0041F69B30084426
:1013E000372190FBF1F290FBF1F5A5F1800501FBAF
:1013F00012041B3C02D56442012000E00020DFF80B
:1014000098A080460027FA44AAF1BE0A0EE0E00741
:101410000AD03246684607EB470101230AEB8101F7
:1014200002F06BFD8DE8070064107F1C002CEED1EC
:10143000194F7F44AE3F19E0E80715D007EB0410C1
:101440000DF1180A90E80E008AE80E00C068F0421C
:1014500001D1981908903246012306A903A802F089
:101460004CFD03AB83E807006D10641C002DE3D135
:101470004FF0010332466946B8F1000F03A802D0CD
:1014800002F026FD01E002F038FDC9E90001C9F8CB
:1014900008200AB0BDE8F0879C31000010B5044672
:1014A000AFF300802046BDE81040FEF7D2BE00003A
:1014B00000487047200000204FF0013C50F8042BFA
:1014C00051F8043B9A4221D1A2EB0C03934313EA57
:1014D000CC1317D150F8042B51F8043B9A4215D184
:1014E000A2EB0C03934313EACC130BD150F8042B5B
:1014F00051F8043B9A4209D1A2EB0C03934313EA3F
:10150000CC13DBD04FF00000704700BFD01A01BAF7
:10151000B1FA81F101F0180122FA01F0CB40DBB2FF
:10152000C0B2C01AC1F120012CFA01F3D11A9143C3
:1015300011EAC311E6D1704701491820ABBEFEE79E
:101540002600020070470000FEE700007047000020
:10155000EFF3108072B600BFFEE70000B0B504469E
:1015600000F012F9054640F21400C2F200000078C3
:10157000611C18BF044400BF00F006F9401BA042E4
:10158000FAD3B0BD2DE9F04F82B00E68002E00F006
:10159000F78041F20042C4F20102042340F2004EFF
:1015A000904208BF03234FF6FF7CC4F2010E009364
:1015B00000240123C1F2100C4FF0000A4FF0000983
:1015C0004AE041F20002C4F20102009F904208BFCB
:1015D000022704F00C030F229A402BEA020207FABA
:1015E00003F34FEA9A051A4346F825204E6840F265
:1015F0000C45F202DEF8082054BF22EA080242EA53
:101600000802C4F20105CEF808202A68B30254BFCC
:1016100022EA080242EA08022A60B303DEF8042044
:1016200054BF22EA080242EA0802F303CEF804207B
:10163000DEF800204FF0010354BF22EA080242EA1C
:101640000802CEF800200E680AF1010A36FA0AF202
:1016500004F1040400F0948003FA0AFB16EA0B0874
:10166000F1D04E68664511DC122E51D8DFE806F045
:10167000340A4946505050505050505050505050DD
:1016800050424D00D1F80C9042E000BF4FF6FF727F
:10169000C1F2210296420FDC0022C1F211029642F1
:1016A0001AD00022C1F21202964215D00022C1F2D5
:1016B0002102964210D02BE00022C1F22202964273
:1016C0000AD00022C1F23102964205D00022C1F2B6
:1016D000320296421CD100BF8A6842B1012A14BF6F
:1016E000C0F814B0C0F810B04FF0080910E04FF087
:1016F00004090DE0CA6802F1040909E04FF000098D
:1017000006E0CA6802F1080902E0CA6802F10C09A1
:1017100002462646B8F5807F24BF0432203E176873
:101720000F25B54027EA050509FA06F63543156089
:10173000CA79D2067FF587AF41F21803C4F20203DB
:101740001A68AEF57E7642F001021A601A6802F05D
:1017500001020192019A2AF0030256F802B040F603
:101760000002C4F20102904208D040F60042C4F2E6
:10177000010290427FF425AF01272AE7002728E7DE
:1017800002B0BDE8F08F000040F2A450C2F20000A9
:1017900000687047002804BF01207047F0B581B091
:1017A000044690F83D0028B9002084F83C0020460B
:1017B00000F026FA242084F83D002068016821F01A
:1017C00001010160016841F400410160016821F4F8
:1017D0000041016000F0D4FB636848F2A16CC0F2E4
:1017E000010C40F60011C0F23D0163453CBF48F2D8
:1017F0008041C0F21E01884202D2012001B0F0BD3A
:101800004DF68361C4F21B31A0FB01122168970CD5
:10181000D1F804E04FF496762EF03F0545EA924564
:101820004D60774348F638160D6AC0F24106A7FBB3
:10183000067625F03F07634538BF960C721C3A4385
:101840000A62CA6948F2A0664CF6FF77C0F2010648
:10185000B34222EA07020AD801385B00B0FBF3F07A
:1018600001306FF31F30042898BF042019E0A768E7
:10187000013857B119277B43B0FBF3F001306FF308
:101880001F3068B100F5804007E003EB4303B0FB75
:10189000F3F001306FF31F3010B100F5004000E0AD
:1018A00001201043C8610868D4E9072320F0C00074
:1018B000104318430860886848F2FF3204F10C07AF
:1018C00090438CCF18431043A6698860C86820F005
:1018D000FF0038433043C860086840F001000860EA
:1018E00000202021206484F83D10206384F83E000D
:1018F00001B0F0BD2DE9F04182B01F461646884682
:101900000446FFF741FF94F83D10202921D12168BA
:10191000054600BF8869800717D5FFF735FF401BD4
:1019200021681A28F6D388698007F3D50020202182
:10193000206384F83D1084F83E00216C022641F0BB
:101940002001216484F83C0004E094F83C00012864
:1019500004D10226304602B0BDE8F081012084F8AF
:101960003C000868C00703D1086840F00100086027
:10197000086820F400600860212084F83D001020F1
:1019800084F83E000020206466626785608D2085B3
:101990000020CFF6FF70E062E06A10F5803F18BFCC
:1019A000012845D1086840F4807008604869089FA4
:1019B000C00713D17E1C06E04869C00700F0E48030
:1019C0004869C0070AD1002EFAD0FFF7DDFE216872
:1019D000002FF1D0401BB842F2D9EDE72069B0F5F5
:1019E000804F01D1FE202AE0062000EAD810F03016
:1019F0000861084650F8142F12071FD47E1C08E017
:101A00004869000740F1D580084650F8142F1207A6
:101A100014D44A69520500F1A980002EF4D0FFF7D2
:101A2000B3FE2168002FEBD0401BB842ECD9E7E7AA
:101A30000828B7D0206B1228B4D0B7E7FF2000EAFF
:101A400008000861084650F8142F92071AD47E1C2B
:101A500009E000BF4869800740F1AB80084650F8B4
:101A6000142F92070ED44A69520500F17F80002E90
:101A7000F4D0FFF789FE2168002FEBD0401BB8425D
:101A8000ECD9E7E700260196486901908869019042
:101A90000198208D00285DD007F1010804E000BF07
:101AA0004869000640F19480084650F8142F120649
:101AB0000ED44A69520562D4B8F1000FF4D0FFF792
:101AC00063FE2168002FEBD0401BB842ECD9E7E75A
:101AD000D4F824E0704610F8012B0A616062608D32
:101AE00001386085B4F828C00846ACF101022285AF
:101AF00050F8143F5B070DD513040BD09EF801205E
:101B00000A610EF102026262628D013A6285ACF1F5
:101B10000202228503685B070AD51004C4D119E0CC
:101B20004869400754D5084650F8142F52070ED480
:101B30004A69520523D4B8F1000FF4D0FFF724FE10
:101B40002168002FECD0401BB842ECD9E8E7228D89
:101B50001004A9D1086840F400700860202084F8BF
:101B60003D0084F83E6084F83C60F3E60A6842F485
:101B700000720A606FF48061016004201AE06FF463
:101B800080620260042024E000202022206384F888
:101B90003D2084F83E00226C012642F0200222649F
:101BA00084F83C000868C00544BF4FF4007020640E
:101BB000D0E6202000212022216384F83D2084F8F3
:101BC0003E10226C01261043206484F83C10C1E6CC
:101BD000202000222023226384F83D3084F83E2018
:101BE000236C1843206484F83C20206C042805D121
:101BF0000868012640F400700860ABE60126A9E6FB
:101C000010B586B0016845F60000C4F200008142BC
:101C10004FF00001CDE90411CDE9021101D006B069
:101C200010BD41F21804C4F20204216800F53440EA
:101C300041F008012160216801F00801019101993A
:101C40004FF440610291122103910321059102A9F1
:101C5000FFF798FC606840F480006060606800F402
:101C600080000190019806B010BD000040F2140001
:101C700040F2A451C2F20000C2F2000100780A68EA
:101C8000104408607047000080B542F20000C4F2C2
:101C90000200016841F010010160032000F07EF8AD
:101CA0000F2000F005F800F02BF8002080BD0000A8
:101CB000B0B540F21402C2F2000240F20001127804
:101CC000C2F200014FF47A730968B3FBF2F20446E2
:101CD000B1FBF2F1084600F059FB0F2C4FF0010563
:101CE0000CD858B94FF0FF3021460022002500F0F3
:101CF00029F840F21800C2F2000004602846B0BD86
:101D000082B041F21800C4F202000168022241F0E0
:101D100001010160016801F001010191019941682F
:101D200041F080514160406800F080500090009880
:101D30000420C4F20100016862F31A61016002B07C
:101D40007047000010B54EF60C5CCEF2000CDCF8CB
:101D50000030C3F3022E8EF00704042C28BF0424A5
:101D6000BEF103034FF0FF3E0EFA04F438BF002328
:101D7000A14399400EFA03F39A43114300F00F0276
:101D800000F160430901043A03F56443624400280A
:101D900048BF02F10C03197010BD00004EF60C5143
:101DA000CEF200010A684FF6FF031A4060F30A22E0
:101DB00042F0806040F0FD7008607047704700009E
:101DC000002804BF012070472DE9F04381B042F2A2
:101DD0000008C4F202080446D8F800000D4600F0DE
:101DE000070081420CD9D8F8000020F007002843F2
:101DF000C8F80000D8F8000000F00700A8426BD136
:101E0000206841F204098107C4F2020917D541078D
:101E100005D5D9F8001041F4E061C9F800100107B8
:101E200005D5D9F8001041F46051C9F80010D9F86F
:101E30000010A26821F0F0011143C9F80010C0079A
:101E400041D1D8F8000000F0070085420CD2D8F844
:101E5000000020F007002843C8F80000D8F8000070
:101E600000F00700A84237D12068410707D5D9F80C
:101E70000010E26821F4E0611143C9F80010000786
:101E800008D5D9F80000216920F4605040EAC1006B
:101E9000C9F80000D9F8002002F00C00082841F22F
:101EA0000020C0F27A0049D145F23C23C2F38341BD
:101EB000C0F60003595CD20334D440F60010C0F2DF
:101EC0003D0048433AE0606859F8041C022807D0F6
:101ED000012824D1890305D4012001B0BDE8F08395
:101EE0008901F9D5D9F8001021F003010843C9F898
:101EF0000000FFF749FC064641F28837D9F8000098
:101F0000616800F00C00B0EB810F9AD0FFF73CFC49
:101F1000801BB842F2D9032001B0BDE8F0838907E5
:101F2000DAD5DFE7D9F8002044F29453C2F34042F7
:101F3000C0F600039A5C4843B0FBF2F0D9F80010F9
:101F400044F27C52C1F30311C0F60002515C40F22E
:101F5000000220FA01F140F21800C2F2000000680D
:101F6000C2F200021160FFF7A3FE002001B0BDE83D
:101F7000F08300004C20C4F2422001210160704730
:101F800040F2000041F20401C2F20000C4F202017A
:101F90000068096844F28C52C1F30221C0F60002C5
:101FA000515CC8407047000010B541F20804C4F20B
:101FB00002042068000658BF10BDFFF7FFFE802016
:101FC000A07010BD002804BF012070472DE9F0412A
:101FD00082B00446007841F20006C007C4F202064F
:101FE0000BD0706800F00C00042876D130688003B4
:101FF00003D56068002800F030812078800719D56B
:10200000706810F00C0F07D0706800F00C00082802
:102010007CD17068C00379D43068800703D520690B
:10202000012840F01A813068616920F0F80040EA28
:10203000C10030602078000713D42078400727D4EF
:10204000E569002D00F00581706800F00C0008289B
:1020500040F09680012D40F0F180012002B0BDE8F3
:10206000F081A069002877D00020C4F2422001212D
:10207000C0F88014FFF788FB054600BF706A800730
:1020800000F1A180FFF780FB401B0228F6D956E142
:10209000F0695FEAC00808D4F06940F08050F06150
:1020A000F06900F080500090009847F20007C4F2F9
:1020B00000073868C00541D4386840F48070386043
:1020C000FFF762FB054600BF3868C00536D4FFF74E
:1020D0005BFB401B6428F7D931E1706800F00C000D
:1020E000082803D17068C0033FF580AF616830688D
:1020F000002900F0FA80B1F5A02F00F0EF80B1F5D3
:10210000803F40F0098140F480300BE120690028D5
:1021100040F20000C4F2422000F07E800121016004
:10212000FFF732FB054600BF306880073FF57BAF05
:10213000FFF72AFB401B0228F6D900E1E168306A6C
:10214000002900F09580052900F08B80012940F0DE
:10215000A68040F00100A8E00020C4F24220002147
:10216000C0F88014FFF710FB054600BF706A8007B7
:102170007FF563AFFFF708FB401B0228F6D9DEE0CE
:102180000027C4F2422700203866FFF7FDFA022D2F
:1021900005460DD13068800140F1D580FFF7F4FA93
:1021A000401B02284FF00300F4D902B0BDE8F081D3
:1021B000306880014DD5FFF7E7FA401B02284FF049
:1021C0000300F5D9F1E740F20000C2F20000006818
:1021D00044F6D351C1F26201A0FB0101480A01900B
:1021E00000BF0198411E002801913FF426AF00BFB7
:1021F0000198411E002801913FF41FAF00BF0198D4
:10220000411E002801913FF418AF00BF0198411E04
:1022100000280191E4D110E700210160FFF7B4FA32
:10222000054600BF306880077FF504AFFFF7ACFAC2
:10223000401B02284FF00300F4D9B6E77068216A0A
:1022400000F480328A4208D1616A00F4701088423A
:1022500003D1002002B0BDE8F081012002B0BDE84A
:10226000F08140F004003062306A40F001001CE070
:1022700020F001003062306A20F004003062FFF785
:1022800083FA054641F28837306A80071DD5FFF78B
:102290007BFA401BB8424FF00300F5D985E720F0E8
:1022A00001003062306A20F004003062FFF76CFAFF
:1022B000054641F2883700BF306A800705D4FFF732
:1022C00063FA401BB842F7D939E0B8F1000F3FF587
:1022D000B7AEF06920F08050F061B1E640F48020A4
:1022E0003060306840F480301CE020F48030306092
:1022F000306820F480203060FFF746FA054600BFC2
:10230000306880037FF579AEFFF73EFA401B642802
:102310004FF00300F4D948E720F480303060306893
:1023200020F480203060FFF72FFA054630688003E4
:102330003FF563AEFFF728FA401B6428F6D9032067
:1023400002B0BDE8F081206AB0F5803F05D1716828
:10235000A26821F40031114371607168626A21F44E
:10236000741111430843706001203866FFF70CFABE
:10237000044600BF306880013FF56BAFFFF704FAF9
:10238000001B02284FF00300F4D90EE7411E002085
:10239000B0EB116F1CBF012070474EF21002CEF25D
:1023A000000251604EF62351CEF20001F0230B7073
:1023B000072190601160704790F83C20012A4FF08F
:1023C000020231D010B580F83D200268D2F804E056
:1023D000D2F808C00C682EF07003234340F2FF745B
:1023E000C4F20004A242536005DCB2F1804F0ED06B
:1023F00040F2004307E042F60043C4F201039A4270
:1024000005D040F60003C4F200039A4204D14968A3
:102410002CF08003194391600121002280F83D10C7
:1024200080F83C20BDE8104010467047002804BFEB
:102430000120704710B590F83D1031B9002180F8A7
:102440003C10044600F066F82046022180F83D105A
:10245000016840F2FF740B68C4F2000442F6004CBD
:10246000A142C4F2010C05DCB1F1804F0AD040F268
:10247000004203E0614505D040F60002C4F20002CC
:10248000914203D1826823F070031343A14205DC1B
:10249000B1F1804F0AD040F2004203E0614505D01F
:1024A00040F60002C4F20002914203D1026923F413
:1024B00040731343846923F08002D0F804E0C368BA
:1024C000224361450A60CB62C1F828E002D142692B
:1024D000CCF8302001224A610B69DB0703D00B697D
:1024E00023F001030B6180F8462080F83E2080F83D
:1024F0003F2080F8402080F8412080F8422080F87A
:10250000432080F8442080F8452080F83D200020BA
:1025100010BD0000006840F20041C4F20001884292
:1025200018BF704781B041F21C00C4F2020001687C
:1025300041F002010160006800F002000090009884
:1025400001B0704790F83C20012A4FF002026BD096
:1025500080B580F83D20D0F800C04FF67772DCF8E7
:10256000083023EA0202CCF808200B684F2B28DC45
:102570001F2B44DD202B45D0302B43D0402B40F087
:10258000AC80D1F804E0C968DCF82030DCF8202009
:1025900022F00102CCF82020DCF8182022F0F00212
:1025A00042EA011123F00A0242EA0E02CCF81810A6
:1025B000CCF82020DCF8081041F0470121F0300170
:1025C00027E06F2B32DDB3F5005F73D0B3F5805F8A
:1025D00021D0702B40F08180D1E901E3C968DCF89B
:1025E000082043EA0E0322F47F4243EA012111430B
:1025F000CCF80810DCF8081041F0770109E00BB1C5
:10260000102B6AD1DCF8081021F07001194341F059
:102610000701CCF808100022012180F83D100021AC
:1026200080F83C10BDE8804010467047502B21D008
:10263000602B52D1D1F804E0C968DCF82030DCF816
:10264000202022F01002CCF82020DCF8182022F400
:10265000704242EA013123F0A00242EA0E12CCF8A5
:102660001810CCF82020DCF8081041F0670121F0A8
:102670001001CEE7D1F804E0C968DCF82030DCF8BE
:10268000202022F00102CCF82020DCF8182022F0D3
:10269000F00242EA011123F00A0242EA0E02CCF8EB
:1026A0001810CCF82020DCF8081041F0570121F078
:1026B0002001AEE7D1E901E3C968DCF8082043EA6C
:1026C0000E0322F47F4243EA01211143CCF80810A3
:1026D000DCF8081041F480419BE701229CE70000F0
:1026E00090F83C30012B04BF022070474FEAB20241
:1026F000032A00F2EE802DE9F043DFE802F002A3A6
:102700003973036842F600461D6A1A6AC4F201066C
:1027100022F001021A621A465C6852F818CFB342DE
:102720008E68D1F800E025F0020545EA06050CD1D7
:10273000CE68D1E9057824F4407425F00C0526F024
:1027400004063C43354344EA08042CF0730747EA87
:102750000E075C609F614F6809695F631D629F6936
:1027600047F008079F619F6927F004079F61A5E074
:10277000036842F600461D6A1A6AC4F2010622F492
:1027800080721A621A46D3F804C052F81CEFB342A2
:102790008E680C6825F4007545EA06250FD1CE68D1
:1027A000D1E90598360240F2FF4725F44065BE4363
:1027B00035432CF4405748EA090647EA061C2EF038
:1027C00073072743C3F804C0DF614F680969DF63FB
:1027D0001D62DF6947F00807DF61DF6927F0040742
:1027E000DF616BE0036842F60047D3F820C01A6A45
:1027F000C4F2010722F480521A621A465C6852F849
:102800001C5FD1F800E08E68BB4204D14F6924F40C
:10281000804444EA87142CF4005747EA063725F42D
:10282000E64646EA0E265C60DE614E6809691E6473
:102830001F62DF6947F40067DF61DF6927F48067A3
:10284000DF613AE0036842F600461D6A1A6AC4F284
:10285000010622F010021A621A46D3F804C052F898
:10286000184FB3428E68D1F800E025F0200545EA04
:1028700006150FD1CE68D1E905986FF0400725F015
:10288000C00507EA061635432CF4406748EA0906F6
:1028900047EA860C24F4E64444EA0E27C3F804C051
:1028A0009F614F6809699F631D629F6947F40067D4
:1028B0009F619F6927F480679F610902136819432C
:1028C00011600021BDE8F043002280F83C2008465A
:1028D00070470121F8E70000002804BF012070477D
:1028E00010B590F83D1031B9002180F83C10044635
:1028F00000F066F82046022180F83D10016840F2A1
:10290000FF740B68C4F2000442F6004CA142C4F20A
:10291000010C05DCB1F1804F0AD040F2004203E027
:10292000614505D040F60002C4F20002914203D195
:10293000826823F070031343A14205DCB1F1804F9C
:102940000AD040F2004203E0614505D040F60002A3
:10295000C4F20002914203D1026923F4407313438D
:10296000846923F08002D0F804E0C3682243614503
:102970000A60CB62C1F828E002D14269CCF830206D
:1029800001224A610B69DB0703D00B6923F00103C5
:102990000B6180F8462080F83E2080F83F2080F8C8
:1029A000402080F8412080F8422080F8432080F8C1
:1029B000442080F8452080F83D20002010BD000014
:1029C00070470000FEE700002DE9F04F81B00A9F3C
:1029D000144688461D464FF0000B184639464246BD
:1029E0002346CDF800B000F083FA00F06FFE14200B
:1029F000FEF7B4FD404601F02EFC06468946284607
:102A0000394600222346CDF800B000F071F900F0FD
:102A10005DFE1420FEF7A2FD49F69A1AC9F6991A2E
:102A200049F69913C3F6C97330464946524601F038
:102A300025FC01F0E1FB0246284639462346CDF845
:102A400000B000F055F900F041FE1420FEF786FDBD
:102A500049F69913C3F6D97330464946524601F0F8
:102A60000DFC01F0C9FB0246284639462346CDF845
:102A700000B000F03DF900F029FE1420FEF76EFDD5
:102A800043F23333C3F6E373304649464FF03332F3
:102A900001F0F4FB01F0B0FB02462846394623461C
:102AA000CDF800B000F024F900F010FE1420FEF77D
:102AB00055FD49F69913C3F6E97330464946524627
:102AC00001F0DCFB01F098FB02462846394623461C
:102AD000CDF800B000F00CF900F0F8FD1420FEF77E
:102AE0003DFD2846394642462346CDF800B000F069
:102AF000FFF800F0EBFD142001B0BDE8F04FFEF749
:102B00002DBD000083B041F21800C4F2020001683C
:102B100041F020010160016801F020010291029959
:102B2000016841F004010160016801F004010191B4
:102B30000199016841F008010160006800F0080097
:102B40000090009803B0704780B540F2045045F6FD
:102B50000001C2F20000C4F2000148F2A0620023AA
:102B60004FF4804CC0F2010280E80E00C0E9033C43
:102B7000C0E90533C0E90733FEF70CFE002808BFA3
:102B800080BDBDE88040FEF7E3BC0000B0B594B066
:102B900040F2004540F25850C4F200050021C2F254
:102BA000000040F2CF2240F2CF730E91CDE90C111C
:102BB0000991CDE90711CDE90511CDE90311CDE961
:102BC0000111C0E90052C0E9021301618161FFF700
:102BD0002DFC002818BFFEF7BBFC4FF480500B9073
:102BE00040F25850C2F200000BA9FFF7ABFC0028DE
:102BF00018BFFEF7ADFC40F25850C2F20000FFF7DC
:102C00006BFE002818BFFEF7A3FC40F258500024CA
:102C1000C2F2000008A9CDE90844FFF7CDFB002867
:102C200018BFFEF795FC602001909620CDE90204C4
:102C3000059440F25854C2F2000401A92046002233
:102C4000FFF74EFD002818BFFEF782FC2168002028
:102C5000A942CDE912001190109001D014B0B0BD7E
:102C600041F21800C4F20200016841F00401016061
:102C7000006810A900F004000F900F9840201090F9
:102C800002201190139005F58230FEF77BFC14B002
:102C9000B0BD0000FEE7000070B584B01C460D46D4
:102CA00000260A201E2132221923009600F020F966
:102CB0003DB10A201E2132221923009600F018F897
:102CC000012640F20400C2F20000D0E900232320D4
:102CD0001421CDE90061029006200021039400F048
:102CE000C1FD04B070BD0000FFF75EF9FEE7000013
:102CF000002B08BF70472DE9F04381B00646DDF890
:102D0000208010441C4689460025C7B205EB090007
:102D1000C1B230463A460B46CDF8008000F008F8C4
:102D20000135E8B2A042F1D301B0BDE8F0437047ED
:102D30002DE9F04FDDF824C0904228D11A4640F228
:102D40008006994288BF0A4638BF0B4641B24FF011
:102D5000010EC2F2000604E00133DCB2944200F23C
:102D600091800029F8D4DCB23F2CF5D803F0070598
:102D700004F0F8040EFA05F506EB0414BCF1000F9C
:102D8000275C14BF27EA05053D432554E4E7994233
:102D900028D11146904288BF014638BF024603F051
:102DA0000700012740F2800507FA00F0DE08C2F2B2
:102DB00000056FEA000E05EBC61603E00132D4B23F
:102DC0008C425FD83F2BF9D855B2002DF6D4D5B23E
:102DD000745DBCF1000F04EA0E0708BF44EA000767
:102DE0007755EBE7A2EB000EA3EB010ABEF1010F52
:102DF0004FF001094FF0010BB8BF4FF0FF39BAF1A6
:102E0000010FB8BF4FF0FF3BBEF1000F48BFCEF13E
:102E1000000EBAF1000F48BFCAF1000AD64533D9F7
:102E2000002312E03444E65D26EA0505E5551BB2B1
:102E300053441C044844BEEBE43F04B21DB2DCBF63
:102E40005944A5EB0E0394421CD00506EFD45FFA5B
:102E500081F8B8F13F0FEAD808F00705012404FA19
:102E600005F56FF0700404EA081640F28004C7B25A
:102E7000BCF1000FC2F20004D4D12644F45D2C430F
:102E8000F455D4E7BDE8F08F002214E03444E65D49
:102E900026EA0505E55512B2724414045944BAEB0A
:102EA000E43F0CB215B2DCBF4844A5EB0A029C42D9
:102EB00008BFBDE8F08F0506EDD45FFA81F8B8F1E0
:102EC0003F0FE8D808F00705012404FA05F56FF074
:102ED000700404EA081640F28004C7B2BCF1000F87
:102EE000C2F20004D2D12644F45D2C43F455D2E75B
:102EF0002DE9F04182B006461044DDF82080C5B2CD
:102F00001F4630462A460B460C46CDF80080FFF798
:102F10000FFF3819C7B2304639462A463B46CDF82E
:102F20000080FFF705FF3046214632463B46CDF88C
:102F30000080FFF7FDFE284621462A463B46CDF895
:102F40000080FFF7F5FE02B0BDE8F0812DE9F04307
:102F500081B040F2804440F20455C2F20004AE2039
:102F6000C2F2000560704FF0FF36284678212246F5
:102F700002230096FEF7BEFC4FF020082846782179
:102F80002246022384F801800096FEF7B3FC102746
:102F9000284678212246022367700096FEF7AAFC95
:102FA000B020607028467821224602230096FEF762
:102FB000A1FCC82060702846782122460223009692
:102FC000FEF798FC4FF0000928467821224602239C
:102FD00084F801900096FEF78DFC28467821224661
:102FE000022367700096FEF785FC4020607028463B
:102FF0007821224602230096FEF77CFC8120607037
:1030000028467821224602230096FEF773FCDF2033
:10301000607028467821224602230096FEF76AFC5B
:10302000A120607028467821224602230096FEF7F0
:1030300061FCA62060702846782122460223009673
:10304000FEF758FCA820607028467821224602230B
:103050000096FEF74FFC3F206070284678212246FC
:1030600002230096FEF746FCA420607028467821D3
:10307000224602230096FEF73DFCD32060702846CE
:103080007821224602230096FEF734FC2846782158
:103090002246022384F801900096FEF72BFCD520EF
:1030A000607028467821224602230096FEF722FC13
:1030B000F020607028467821224602230096FEF711
:1030C00019FCD920607028467821224602230096F8
:1030D000FEF710FC22206070284678212246022349
:1030E0000096FEF707FCDA20607028467821224619
:1030F00002230096FEF7FEFB12206070284678211E
:10310000224602230096FEF7F5FBDB20607028467E
:103110007821224602230096FEF7ECFB2846782110
:103120002246022384F801800096FEF7E3FB8D20FF
:10313000607028467821224602230096FEF7DAFBCB
:103140001420607028467821224602230096FEF75C
:10315000D1FB40F28000C2F200004FF48061FDF725
:103160002EF900F0B3FAAF2060702846782122468D
:1031700002230096FEF7BEFB01B0BDE8F08300001D
:1031800080B540F28000C2F200004FF48061FDF78C
:1031900016F980BD2DE9F04782B09A46137813B333
:1031A0000646DDF828809AF801008946571E00BFC0
:1031B0009AF80050A3F12002EB1DDAF80410DC08A5
:1031C000C3B202FB03F000FB0412F0B24946CDE9A2
:1031D000005800F01FF99AF80100BB780644002B54
:1031E00007F10107E4D102B0BDE8F0872DE9F04F07
:1031F00087B092F800900492B9F1000F039100F0AB
:1032000085800446581C0290187859780730C00809
:1032100048430430049D9A465FFA80FB4FF0000853
:103220001AE000BF221D069CBA463D787B780399C0
:10323000109FE0B2CDE9005700F0ECF80298B044DE
:10324000049A1FFA88F1007812F801900444B9F149
:10325000000F02EB010559D04FFA89F1B1F1FF3FA0
:10326000CDE9051402DD012612E000BF09F0E000FF
:10327000C02801D102260BE009F0F000E02801D1BE
:10328000032605E009F0F800F0283FD1042600BF2E
:1032900057469AF808A0BAF1000F0CD07C6800BF1E
:1032A000284621463246FDF719F80028BAD0BAF16F
:1032B000010A5C44F4D1F86805994268BA460029CD
:1032C00016D406784378A9F12001F01DC0085943AF
:1032D000069C01FB00220399109FE0B2CDE9006734
:1032E00000F098F8DAF80C0001260130A7E700BFDB
:1032F000069C057843780399109FE0B2CDE900570A
:1033000000F088F8DAF80C00013098E707B0BDE863
:10331000F08F00002DE9F04F01F0070CDDF824E0FC
:1033200003EB0C04092C4FEAD10846D345B2002D1B
:1033300020D43F291ED8CCF1080BFF2323FA0BF928
:1033400040F28003C2F2000302FA0CF603EBC8134A
:10335000BEF1000F18BFF64313F800A046EA0907B4
:103360000AEA07096FF0FF0747FA0BF73E4046EA03
:1033700009061E54002D4AD4372948D804F1F70312
:10338000CCF10807FA40DBB24FF4FF7707FA03F3FA
:1033900040F2800708F10101C2F2000707EBC111FA
:1033A000BEF1000F18BFD2430F5C42EA030637405C
:1033B0009A433A430A54BDE8F08F43B2002B26D417
:1033C0003F2988BFBDE8F08F611EC9B24FF4FF737B
:1033D00040F2800603FA01F1CCF10803FF27C2F2A4
:1033E000000602FA0CF2DF4006EBC816BEF1000F31
:1033F00018BFD2431743355C0F432F406FF0FF05D2
:1034000045FA03F323EA0101114039433154BDE881
:10341000F08F00002DE9F04F91B0002B059200F0E5
:1034200051818E460490DDE91A100EF00708CA0893
:1034300001F00701019100280746C8F108014FF08B
:10344000FF0020FA01F018BF4FF0FF370C906FF02B
:10345000FF0008410B90A8F101000D91C0B24FF49C
:10346000FF7101FA00F00A90C043099002F01E00BB
:1034700008905800079000200F90D0070392029008
:103480000E931097069309E00F9801300F90984221
:103490000E9800F101000E9000F0EB801A980828B9
:1034A000F2D304980F994FF0000B084403994FFA98
:1034B00080FA01294ED10298069B0028E4D0059895
:1034C0000F990BFB03F608440EEBCB01C9B210F8C1
:1034D00006C0BAF1000F4FEAD10918D43F2916D817
:1034E00010980CFA08F4444040F28000C2F2000048
:1034F0000C9A00EBC91010F80AB044EA02060B9AC5
:1035000006EA0B061440069B344300F80A40BAF161
:10351000000FB9D4B8F1000FB6D03729B4D80D993F
:10352000109A2CFA01F1514040F2800209F1010099
:10353000C2F2000202EBC0100A9A10F80A6041EAD7
:103540000204099A2640069B1140314300F80A10F4
:103550009AE700BF059906E008980BF1020B584561
:1035600007980144A7D00F9A0EEBCB005FFA80F9C1
:103570008C5CBAF1000F4FEAD90C1BD4B9F13F0FA4
:1035800018D8109A04FA08F6564040F28002C2F2A7
:103590000002454602EBCC180C9B724618F80AE074
:1035A000334303EA0E0396460B9A1640334308F85A
:1035B0000A30A846BAF1000F1DD4B8F1000F1AD096
:1035C000B9F1370F17D80D9A0CF1010324FA02F65E
:1035D000109A564040F28002C2F2000202EBC3137E
:1035E0000A9A13F80A4046EA0205099A254016404D
:1035F0002E4303F80A600830C4B20E98BAF1000FE7
:10360000085C4FEAD40615D43F2C13D8109A00FA60
:1036100008F3534040F28002C2F2000202EBC615EA
:103620000C9F15F80A201F433A400B9F3B401A435A
:1036300005F80A20BAF1000F8ED4B8F1000F8BD034
:10364000372C3FF689AF0D9B721CD840109B0A9F08
:10365000584040F28003C2F2000303EBC21212F89A
:103660000A3007433B40099F3840184302F80A00DC
:1036700072E7DDF804A0DDF81080DDF86C90BAF197
:10368000000F18BF002B1DD01A98039A00F0F80005
:1036900000EB0E0105985D4202FB03044FF0FF3082
:1036A000CEB200BF471C2044427808EB0700C0B2EE
:1036B00031465346CDF80090FFF72CFEE819013053
:1036C0003846EFD111B0BDE8F08F00002DE9F04F82
:1036D00081B040F28248C2F20008402088F8000021
:1036E00040F28000C2F2000040F2804640F20457EF
:1036F000A0F18005C2F200064FF0FF34C2F20007CD
:103700004FF0100B08F1010A4FF0000949F0B0002A
:10371000707038467821324602230094FEF7EAF8AA
:103720000020707038467821324602230094FEF75C
:10373000E1F8384678213246022386F801B0009439
:10374000FEF7D8F88035504629468022FCF7F2FD76
:1037500038467821424681230094FEF7CBF809F1E0
:103760000109B9F1080FD1D101B0BDE8F08F000017
:10377000704700007047000010B582B01420FDF7BC
:10378000EDFEFFF7E3FBFFF7FBFC44F29853002448
:103790000BA2C0F60003052005210094FFF7FAFCF8
:1037A00044F2A85309A2C0F6000305201421009496
:1037B000FFF7F0FC02B0BDE81040FFF787BF00BF85
:1037C0004C6F6164696E672E2E2E00004F4C45448D
:1037D0005F496E697420436F6D706C657465642118
:1037E0000000000080B584B001280CD068BB4FF009
:1037F000320C002078210A220523CDF800C0FFF703
:10380000E3F804B080BDFFF7BBFC40F20C00C2F24D
:103810000000D0E900233C2100200FF2340C4FF0CF
:10382000140E8DE803400021CDF80CC000F01AF80A
:1038300008A3052000210122FFF72EFA00F056F818
:1038400004B0BDE88040FFF741BF04B080BD00BFB9
:1038500065656500E887AAE58AA8E5BEAAE8BFB95C
:10386000000000002DE9F043C3B01746DDE94C82AB
:103870001D460C46DDE94A964EAB0DF10D00FF21C9
:103880000293FCF70DFD0DF10D02304641463CB1AF
:103890002B46CDF80090FFF77DFC43B0BDE8F083E8
:1038A0003B46CDF80090FFF7A1FC43B0BDE8F083A4
:1038B00010B540F2A054C2F200042078042809D0C8
:1038C00001280AD0002818BF10BDFFF755FF0020BF
:1038D000FFF788FF0120207010BD0120BDE81040D7
:1038E000FFF780BFFEF7C2B970470000F0B585B0A2
:1038F0000024012001217E2214230094FFF7F8FA0E
:1039000040F20405C2F20005D5E900230FA005210D
:103910000327CDE900410390022001210297FFF720
:10392000A1FF40F2A050C2F200000678D5E90023C2
:1039300008A05A21CDE90041CDE902700320012100
:103940000496FFF78FFF05B0F0BD00BF4D656E75A3
:10395000000000004D6F646520256400FEE7000054
:1039600090B0FEF791F900240120CDE90B44CDE998
:10397000094406900A904FF4E0104FF4803102257C
:103980000F9006A8CDE90714CDE90D51FEF71AFBFB
:1039900018B1EFF3108072B6FEE70F20CDE90105F4
:1039A0004FF48060CDE9040401A802210394FEF7DE
:1039B00007FA20B1EFF3108072B600BFFEE7FEF702
:1039C000D9FAFFF79FF8FFF7BFF8FFF7DFF800BF5E
:1039D000FFF76EFFFCE75FEA400C08BF91F0000FB5
:1039E0004FEA8C234FEAC12243EA51514FEA1C505F
:1039F00018BF00F5F0404FEA300018BF41F0004119
:103A00005FEA6C5C00F02980BCF1FF3F08BF40F02A
:103A100080407047130C06BF12044FF0100C4FF09B
:103A2000000C130E04BF12020CF1080C130F04BF9C
:103A300012010CF1040C930F04BF92000CF1020C64
:103A4000D30F04BF52000CF1010C11464FF00002DD
:103A5000A0F11F00A0EB0C00704711F0004F08BF51
:103A6000704731F000413FF4D5AF0B0C06BF09049D
:103A70004FF0100C4FF0000C0B0E04BF09020CF1BC
:103A8000080C0B0F04BF09010CF1040C8B0F04BFD1
:103A900089000CF1020CCB0F04BF49000CF1010CA2
:103AA000CCF1200322FA03F341EA030102FA0CF2FB
:103AB000A0EB0C0000F101007047000023F07F47ED
:103AC00020F07F4C80EA030000F00040ACEB0703DD
:103AD00003F57C5303F1FF032DE9804909B44FEA54
:103AE000144324EA03484FEA154B25EA0B4E0FF224
:103AF000042606EB13273E7803FB0667C7F500078D
:103B000007FB06F64FEAD64606F102064FEA54379F
:103B100007FB066CCCF1005C4FEA1C472CEA074C13
:103B20000CFB06F507FB06F404EB15464FEA961668
:103B300049085FEA320234BF00204FF000404FEAEC
:103B4000D13706FB07FC4FEA1C4C0CFB0BF7D21BD2
:103B500003FB0CF761EB07010CFB0EF7B0EB074022
:103B600072EB17420CFB08F734BFA2EB0742B2EB33
:103B7000074261EB17414FEA0C444FEA910706FBFD
:103B800007FC4FEA1C4C0CFB0BF7B0EBC74072EB89
:103B9000573203FB0CF734BFA2EBC742B2EBC7426C
:103BA00061EB57310CFB0EF7B0EBC70072EB5772AD
:103BB0000CFB08F734BFA2EBC702B2EBC70261EB04
:103BC00057714FEA816141EA92114FEA826242EAFB
:103BD00090124FEA806004EBCC04039F4FEAD13788
:103BE00006FB07FC4FEA1C4C0CFB0BF7D21B03FB3C
:103BF0000CF761EB07010CFB0EF7B0EB074072EB23
:103C000017420CFB08F734BFA2EB0742B2EB0742A6
:103C100061EB17414FEA8C5504EB9C244FEA910766
:103C200006FB07FC4FEA1C4C0CFB0BF7B0EBC74044
:103C300072EB573203FB0CF734BFA2EBC742B2EB77
:103C4000C74261EB57310CFB0EF7B0EBC70072EBCC
:103C500057720CFB08F734BFA2EBC702B2EBC702E6
:103C600061EB57714FEA816141EA92114FEA82623A
:103C700042EA90124FEA806015EB4C2544F10004B3
:103C80004FEAD13706FB07FC4FEA1C4C0CFB0BF745
:103C9000D21B03FB0CF761EB07010CFB0EF7B0EB3B
:103CA000074072EB17420CFB08F734BFA2EB074248
:103CB000B2EB074261EB17414FEA813141EA924191
:103CC0004FEA823242EA90424FEA80304FEA0C7665
:103CD00015EB1C1544F1000448EA03434EEA0B4877
:103CE0004FF0000EB2EB080C71EB030724BF6246E5
:103CF00039464EEB0E0E4FF0000B00185241494171
:103D00004BEB0B0BB2EB080C71EB03077BF1000BD9
:103D100024BF624639464EEB0E0E4FF0000B0018E2
:103D2000524149414BEB0B0BB2EB080C71EB030713
:103D30007BF1000B24BF624639464EEB0E0E51EA72
:103D4000020718BF46F0010616EB0E7655F1000289
:103D500054F1000103D5BDE88901BDE80088BDE844
:103D60008901BDE80048B619524141EB0101A3F1B8
:103D70000103704780807F7E7D7C7B7A79787776BF
:103D800076757473727171706F6E6E6D6C6C6B6A38
:103D90006A696868676666656464636362616160D6
:103DA000605F5F5E5E5D5D5C5C5B5B5A5A59595853
:103DB00058575756565555555454535352525251BD
:103DC000515050504F4F4F4E4E4D4D4D4C4C4C4B13
:103DD0004B4B4A4A4A49494948484847474747465A
:103DE0004646454545444444444343434342424296
:103DF000424141419C46002B30D477002BD04FEA02
:103E000037071CB503B44FF010004FF01001BAF1A2
:103E1000000F06D0BCF1000FDCBF40F0080040F0FE
:103E200008014FF000000FBCBDE810400BF1010B82
:103E3000BBF1010F08BF5FEA170722BF12F10102B1
:103E400011F101014FF0004143F1000300F0004087
:103E500043EA00007047F9D35708D0E746EA064620
:103E60004FEA164613F1400F1FDD13F1200FDFBF9D
:103E700016430A46002120335B42BED0C3F120071F
:103E800046EA06464FEA164602FA07F746EA0706EA
:103E900022FA03F2C3F1200701FA07F742EA070208
:103EA00021FA03F14FF00003A7E746EA020646EACB
:103EB00006464FEA164646EA0106BCBF46EA0646F3
:103EC000360C4FF000034FF000024FF0000194E772
:103ED0002DE9804C70B49A46934691E8380007C8A3
:103EE00031EA400C48BF34EA430C03D5FFF7E6FD46
:103EF000FFF780FFF0BCBDE8008C2DE9804C70B46A
:103F00009A46934691E8380007C810F0804F08BFE2
:103F100013F0804F03D100F005F8FFF76BFFF0BC02
:103F2000BDE8008C20F07F4723F07F4C80EA03003F
:103F300000F0004007EB0C03A3F57C53A3F1FE0354
:103F400092F0000F00F0B38095F0000F00F0778042
:103F50002DE901494FEA114021EA00484FEA144691
:103F600024EA064700FB06FC08FB06F607FB08F8F8
:103F700018EB06484CEB164C00FB07F718EB07480C
:103F80004CEB17404FEA124B22EA0B4E4FEA154614
:103F900025EA06470BFB06FC0EFB06F607FB0EFEAA
:103FA0001EEB064E4CEB164C0BFB07F71EEB074EB9
:103FB0004CEB174B18EB0B0840F1000018EB0E0B05
:103FC00058EB000840F100008F1A4FF000014FF04D
:103FD00000063CBFC943661B14BFB5EB040C0021AF
:103FE0003CBFC943F61B4FEA174427EA04454FEA92
:103FF0001C472CEA074C04FB076205FB07F70CFB88
:1040000005F616EB074642EB174204FB0CFC16EBD9
:104010000C4642EB1C421BEB060658EB02024141E8
:104020004EEA8E0E46EA9E0601D5BDE80189B61914
:10403000524141EB0101A3F10103BDE801894FEABF
:10404000144524EA05464FEA114721EA074C05FBCF
:1040500007F406FB07F70CFB06F111EB074144EBF5
:10406000174405FB0CFC11EB0C4144EB1C444FEADC
:10407000124722EA074C05FB07F206FB07F70CFB89
:1040800006F616EB074642EB174205FB0CFC16EB57
:104090000C4642EB1C456A1854F1000148BF7047BA
:1040A000B619524141EB0101A3F10103704795F0AC
:1040B000000F37D04FEA114221EA02464FEA144777
:1040C00024EA074C02FB07F106FB07F70CFB06F49A
:1040D00014EB074441EB174102FB0CFC14EB0C44BE
:1040E00041EB1C414FEA154725EA074C02FB07F557
:1040F00006FB07F70CFB06F616EB074645EB1745E4
:1041000002FB0CFC16EB0C4645EB1C42121951F15C
:10411000000148BF7047B619524141EB0101A3F1BC
:10412000010370474FEA144524EA05464FEA114758
:1041300021EA074C05FB07F106FB07F70CFB06F22B
:1041400012EB074241EB174105FB0CFC12EB0C4252
:1041500051EB1C414FF0000648BF7047921841EBED
:104160000101A3F101037047490050EAC12018BFC3
:1041700004204A0D18BF40F0010040F2FF72B2EB7C
:10418000515F08BF40F00200012808BF05207047BA
:1041900030380A2801D20120704700207047000003
:1041A00010B500290AD00878002807D005487844BF
:1041B000FDF782F9002801D0002010BD02487844A4
:1041C00010BD00005E1100005611000010B500295E
:1041D0000AD00878002807D005487844FDF76CF924
:1041E000002801D0002010BD0248784410BD000016
:1041F0004E110000461100004FEA41034FEA5353AD
:10420000A3F58063D3F11E03C8BFD3F1210C0CDDED
:104210004FF0004242EAC12242EA505232FA03FC15
:104220008CEAE17CACEBE1707047102BC4BF00203E
:10423000704703F5787CBCF1FF3F04D06FF000427B
:1042400082EA2100704770B500F0C2F849922480DC
:1042500000207047F2E7B0FA80F310FA03F10AD0B9
:10426000C3F11D0303F580634FEA03524FEA415047
:1042700002EBD12170474FF00000704770B5DFF8B6
:1042800048C11CEA111E1EBF1CEA13159EEA0C0F42
:1042900095EA0C0F00F06F8081EA03044EEAD47EA9
:1042A000AE4421EA4C1123EA4C1341F4801143F44B
:1042B0008013AEF17F7EA1FB024CA0FB0365361993
:1042C00055EB0C05A1FB034C4CF10003A0FB021CB9
:1042D00016EB0C06654153F10003094218BF46F086
:1042E000010613F4007F0BD14FEA03314FEA05308A
:1042F00041EA155140EA165034036FF003020AE018
:104300004FEAC3214FEAC52041EA555140EA5650D1
:10431000F4026FF0020202EB2E4201EB025585EA35
:10432000CE710AD05FEA440C18BF24F0004450F16B
:10433000000041F1000120EAD47040F2FE7C6245A9
:1043400000D270BDA84214BF4FF080444FF04044EB
:10435000002E08BF0024BEF1806FA8BFA1F1C041AC
:10436000BDE8704080F2828001F1C04101F000415F
:104370004FF0000070470CEA13159EEA0C0F18BFAF
:1043800095EA0C0F06D081EA030E4FF000000EF004
:10439000004170BD00F01CF88900013E00F007B834
:1043A00000F009B84FEA430C5FEA5C5C08D081EA90
:1043B000030100F05BB84FEA410C5FEA5C5CF6D1A8
:1043C00002494FF0000070470000FF070000F87F2F
:1043D0000EF1020E2EF0030E5EF8046B364205D489
:1043E000012A43EB030515F5001F12D8012841EB04
:1043F000010C1CF5001F0CD80ED14FEAD17C0CEB40
:104400004C0C0CF1020C15F5001F08BF4CEBD37CD3
:1044100004E04FF0080C01E04FEAD37C0CEB4C05B4
:1044200026FA05F606F00706B6F1040C06D20EEBE6
:10443000860CBDE870404CF0010C6047DFE80CF0E2
:10444000090B02024FF00041A1F500214FF00000DE
:1044500070BD19461046012851EB010418BFD4F570
:10446000001484BF002001F0004170BD0808A0F5D1
:1044700000114FEA31017047FCF728BCFCF75CBD26
:104480000000000000000000303132333435363790
:104490003839414243444546403058003031323388
:1044A0003435363738396162636465664030780088
:1044B00004000008000000000000000200010000ED
:1044C00010303132333435363738396162636465E0
:1044D00066787000303132333435363738394142FE
:1044E000434445465850000002400000000000A030
:1044F0000000000005400000000000C800000000AF
:104500000C4000000000409C00000000194000002A
:104510000020BCBE0000000034400000BFC91B8E5C
:1045200000000004B5400000504BCFD06607E2CF3A
:10453000010000006C4100003E8251AADFEEA7346A
:1045400001000000D9420000DCB5A0E23A301F971C
:10455000FFFFFFFFB4450000FD25A0C8E9A3C14F40
:10456000FFFFFFFFFF3F0000000000800000000091
:10457000FF3F00000000008000000000000000007D
:104580000000000001020304060708090000000003
:1045900001020304010200000C060000B0450008FF
:1045A00010080000244A0008080600001450000803
:1045B0000000000000000000000000000000FC00FF
:1045C0000000000002000000000C020C02000000CD
:1045D0000000000090D0BCD0BC900003000300009D
:1045E0001824FE448C000302070201001824D8B0EE
:1045F0004C80000300010201C038E438E0000102F1
:104600000201020208060000000000000000000095
:10461000000000F80402000000010204000204F897
:1046200000000004020100009060F86090000000AB
:10463000010000002020FC202000000001000000FC
:1046400000000000000008060000000020202020DC
:104650002000000000000000000000000000000238
:10466000000000000080601C020004030000000045
:10467000F8040404F8000102020201000008FC0032
:104680000000000203020000188444241800030202
:104690000202020008042424D800010202020100E0
:1046A00040B088FC80000000000302003C24242469
:1046B000C400010202020100F824242CC0000102FF
:1046C000020201000C04E41C0400000003000000CE
:1046D000D8242424D80001020202010038444444B2
:1046E000F8000003020201000000100000000000BA
:1046F0000200000000002000000000000600000092
:104700000020508804020000000001029090909068
:104710009000000000000000000204885020000209
:10472000010000001804C42418000000020000006A
:10473000F804E494F80001020202020000E09CF098
:10474000800002030000030204FC2424D8000203BA
:1047500002020100F80404040C000102020201003C
:1047600004FC0404F80002030202010004FC2474A7
:104770000C0002030202030004FC24740C00020378
:1047800002000000F0080444CC40000102020100D5
:1047900004FC2020FC040203000003020404FC04C7
:1047A0000400020203020200000404FC04040604E4
:1047B0000403000004FC24D00C04020302000302E2
:1047C00004FC04000000020302020203FC3CC03CA3
:1047D000FC0003000300030004FC30C4FC040203DB
:1047E00002000300F8040404F800010202020100C0
:1047F00004FC24241800020302000000F88484044E
:10480000F80001020207050004FC2464980002037A
:1048100002000302182424448C0003020202010057
:104820000C04FC040C0000020302000004FC000065
:10483000FC04000102020100047C80E01C04000072
:10484000030000001CE03CE01C000003000300002B
:10485000049C609C0400020300030200041CE01C92
:1048600004000002030200000C84641C0400020324
:10487000020203000000FE02020000000704040020
:10488000000E30C00000000000010200000202FE25
:1048900000000004040700000004020400000000FF
:1048A00000000000000000000000080808080808D8
:1048B0000000020000000000000000000040A0A076
:1048C000C00000010202030204FC2020C00000031B
:1048D0000202010000C0202060000001020202006C
:1048E00000C02024FC0000010202030200C0A0A0BE
:1048F000C0000001020202000020F824240400028B
:10490000030202000040A0A0602000070A0A0A0477
:1049100004FC2020C0000203020003020020E40087
:104920000000000203020000000020E4000008086C
:104930000807000004FC80E02020020302000302BC
:104940000404FC000000020203020200E020E02058
:10495000C00003000300030020E02020C000020389
:104960000200030200C02020C0000001020201007A
:1049700020E02020C000080F0A02010000C0202013
:10498000E0000001020A0F0820E04020200002039E
:10499000020000000060A0A020000002020203004C
:1049A0000020F820000000000102020020E00020AA
:1049B000E00000010202030220E0208060200000ED
:1049C000030100006080E08060000003000300003D
:1049D00020608060200002030003020020E02080AD
:1049E00060200808070100000020A06020000002ED
:1049F00003020200000020DE0200000000070400A5
:104A0000000000FF00000000000F00000002DE2098
:104A1000000000040700000002010204040200007C
:104A20000000000000000000000000000000000086
:104A300000000000000000F800000000000000334B
:104A40003000000000100C06100C060000000000F2
:104A50000000000040C07840C0784000043F0404DB
:104A60003F040400007088FC08300000001820FF9C
:104A7000211E0000F008F000E018000000211C03D7
:104A80001E211E0000F00888700000001E21232453
:104A90001927211010160E00000000000000000071
:104AA00000000000000000E0180402000000000701
:104AB0001820400000020418E00000000040201808
:104AC00007000000404080F0804040000202010FDB
:104AD00001020200000000F0000000000101011FBF
:104AE00001010100000000000000000080B0700023
:104AF00000000000000000000000000000010101B3
:104B00000101010100000000000000000030300041
:104B1000000000000000000080601804006018061B
:104B20000100000000E010080810E000000F102055
:104B300020100F00001010F8000000000020203F9F
:104B40002020000000700808088870000030282429
:104B500022213000003008888848300000182020CA
:104B600020110E000000C02010F8000000070424EF
:104B7000243F240000F80888880808000019212034
:104B800020110E0000E0108888180000000F11208E
:104B900020110E0000380808C83808000000003F47
:104BA000000000000070880808887000001C2221A6
:104BB00021221C0000E010080810E0000000312253
:104BC00022110F00000000C0C000000000000030F3
:104BD0003000000000000080000000000000806045
:104BE00000000000000080402010080000010204C6
:104BF00008102000404040404040400004040404AD
:104C00000404040000081020408000000020100868
:104C100004020100007048080808F000000000309D
:104C200036010000C030C828E810E000071827242B
:104C300023140B000000C038E0000000203C2302D9
:104C40000227382008F8888888700000203F20203C
:104C500020110E00C030080808083800071820206E
:104C60002010080008F808080810E000203F202065
:104C700020100F0008F88888E8081000203F202046
:104C80002320180008F88888E8081000203F20003A
:104C900003000000C0300808083800000718202072
:104CA000221E020008F808000008F808203F210131
:104CB00001213F20000808F8080800000020203FDC
:104CC0002020000000000808F8080800C08080804C
:104CD0007F00000008F888C028180800203F200145
:104CE0002638200008F8080000000000203F20209F
:104CF0002020300008F8F800F8F80800203F003FB6
:104D0000003F200008F830C00008F808203F2000CD
:104D100007183F00E01008080810E0000F102020DE
:104D200020100F0008F808080808F000203F2101B3
:104D300001010000E01008080810E0000F1824240A
:104D400038504F0008F8888888887000203F20007D
:104D5000030C302000708808080838000038202133
:104D600021221C00180808F8080818000000203F3D
:104D70002000000008F808000008F808001F2020A4
:104D800020201F000878880000C838080000073875
:104D90000E010000F80800F80008F800033C0700C6
:104DA000073C0300081868808068180820302C032E
:104DB000032C30200838C800C83808000000203F05
:104DC0002000000010080808C838080020382621F4
:104DD00020201800000000FE020202000000007FF8
:104DE00040404000000C30C0000000000000000106
:104DF0000638C00000020202FE00000000404040F1
:104E00007F00000000000402020204000000000015
:104E10000000000000000000000000008080808092
:104E2000808080800002020400000000000000007A
:104E30000000000000008080808000000019242213
:104E400022223F2008F8008080000000003F11204F
:104E500020110E000000008080800000000E112054
:104E600020201100000000808088F800000E112032
:104E700020103F200000808080800000001F222240
:104E800022221300008080F0888888180020203FAC
:104E9000202000000000808080808000006B9494BF
:104EA0009493600008F8008080800000203F21007B
:104EB00000203F2000809898000000000020203F44
:104EC00020200000000000809898000000C0808032
:104ED000807F000008F8000080808000203F2402CE
:104EE0002D302000000808F8000000000020203FBE
:104EF000202000008080808080808000203F200073
:104F00003F20003F8080008080800000203F210003
:104F100000203F200000808080800000001F2020B3
:104F200020201F00808000808000000080FFA120E2
:104F300020110E000000008080808000000E1120F3
:104F400020A0FF80808080008080800020203F2182
:104F50002000010000008080808080000033242435
:104F600024241900008080E0808000000000001FE1
:104F7000202000008080000000808000001F202092
:104F800020103F20808080000080808000010E3053
:104F90000806010080800080008080800F300C03B4
:104FA0000C300F0000808000808080000020312EB7
:104FB0000E312000808080000080808080818E7093
:104FC0001806010000808080808080000021302C45
:104FD0002221300000000000807C0202000000005E
:104FE000003F404000000000FF0000000000000003
:104FF000FF0000000002027C800000000040403FF3
:10500000000000000006010102020404000000008C
:10501000000000000000000000000000002F000061
:1050200000000700070000147F147F1400242A7F6B
:105030002A120062640813230036495522500000EA
:105040000503000000001C224100000041221C005A
:105050000014083E08140008083E0808000000A0DC
:1050600060000008080808080000606000000020D8
:1050700010080402003E5149453E0000427F4000B6
:10508000004261514946002141454B31001814123C
:105090007F10002745454539003C4A494930000109
:1050A0007109050300364949493600064949291E58
:1050B00000003636000000005636000000081422BA
:1050C00041000014141414140000412214080002BA
:1050D0000151090600324959513E007C1211127CDF
:1050E000007F49494936003E41414122007F41410C
:1050F000221C007F49494941007F09090901003EFE
:105100004149497A007F0808087F0000417F41003B
:10511000002040413F01007F08142241007F4040B1
:105120004040007F020C027F007F0408107F003E99
:105130004141413E007F09090906003E4151215E7F
:10514000007F091929460046494949310001017F7C
:105150000101003F4040403F001F2040201F003F12
:105160004038403F006314081463000708700807C4
:1051700000615149454300007F41410000552A55D7
:105180002A55000041417F00000402010204004052
:105190004040404000000102040000205454547874
:1051A000007F484444380038444444200038444494
:1051B000487F00385454541800087E090102001832
:1051C000A4A4A47C007F080404780000447D40006F
:1051D000004080847D00007F102844000000417F53
:1051E0004000007C04180478007C0804047800382F
:1051F0004444443800FC242424180018242418FCB7
:10520000007C0804040800485454542000043F441F
:105210004020003C4040207C001C2040201C003CE2
:105220004030403C004428102844001CA0A0A07C32
:10523000004464544C44141414141414020304055C
:10524000060708090A0B0C0D0E0F101010100000B5
:105250005C52000804000000A045000801000200A4
:1052600004001FF01010101010101FF0101010107C
:105270001FF01010101010101FF010100000000090
:10528000004000407C40004001FC0044FE442044BB
:105290002044208448844484FD04450402280410EA
:1052A00000000000103C17E02420442097FE14204A
:1052B00025FC6504A50425FC250425FC29042904F6
:1052C00031FC21040000000000402020102017FEC7
:1052D00000900090F294129214921110111012503A
:1052E0001420280047FE0000000000003854000889
:1052F0000000002020000000500100085854000861
:1053000020000020880B0000700100081C00000035
:1053100043000000F8FFFFFF0C0000000E0000003B
:105320000F0000002E0000001001000043000000EC
:10533000F8FFFFFF004040404040404040404141B6
:10534000414141404040404040404040404040405A
:1053500040404040400502020202020202020202F4
:1053600002020202022020202020202020202002F1
:105370000202020202029090909090901010101081
:10538000101010101010101010101010101010101D
:1053900002020202020288888888888808080808B1
:1053A000080808080808080808080808080808087D
:1053B00002020202400000000000000000000000A5
:1053C00000000000000000000000000000000000DD
:1053D00000000000000000000000000000000000CD
:1053E00000000000000000000000000000000000BD
:1053F00000000000000000000000000000000000AD
:10540000000000000000000000000000000000009C
:10541000000000000000000000000000000000008C
:10542000000000000000000000000000000000007C
:10543000000000000000000000127A004C5200083A
:10544000984500084C5200089845000801000000EB
:08545000100000000000000044
:04000005080000ED02
:00000001FF
